{
  "_format": "hh-sol-artifact-1",
  "contractName": "GodOfWarBattle",
  "sourceName": "contracts/MyEpicGame.sol",
  "abi": [
    {
      "inputs": [
        {
          "internalType": "string[]",
          "name": "_names",
          "type": "string[]"
        },
        {
          "internalType": "string[]",
          "name": "_imageURI",
          "type": "string[]"
        },
        {
          "internalType": "uint32[]",
          "name": "_hp",
          "type": "uint32[]"
        },
        {
          "internalType": "uint32[]",
          "name": "_attackDamage",
          "type": "uint32[]"
        },
        {
          "internalType": "uint32[]",
          "name": "_superAttackDamage",
          "type": "uint32[]"
        },
        {
          "internalType": "uint32[]",
          "name": "_defense",
          "type": "uint32[]"
        },
        {
          "internalType": "string",
          "name": "bossName",
          "type": "string"
        },
        {
          "internalType": "string",
          "name": "bossImageURI",
          "type": "string"
        },
        {
          "internalType": "uint32",
          "name": "bossHp",
          "type": "uint32"
        },
        {
          "internalType": "uint32",
          "name": "bossAttackDamage",
          "type": "uint32"
        }
      ],
      "stateMutability": "nonpayable",
      "type": "constructor"
    },
    {
      "anonymous": false,
      "inputs": [
        {
          "indexed": true,
          "internalType": "address",
          "name": "owner",
          "type": "address"
        },
        {
          "indexed": true,
          "internalType": "address",
          "name": "approved",
          "type": "address"
        },
        {
          "indexed": true,
          "internalType": "uint256",
          "name": "tokenId",
          "type": "uint256"
        }
      ],
      "name": "Approval",
      "type": "event"
    },
    {
      "anonymous": false,
      "inputs": [
        {
          "indexed": true,
          "internalType": "address",
          "name": "owner",
          "type": "address"
        },
        {
          "indexed": true,
          "internalType": "address",
          "name": "operator",
          "type": "address"
        },
        {
          "indexed": false,
          "internalType": "bool",
          "name": "approved",
          "type": "bool"
        }
      ],
      "name": "ApprovalForAll",
      "type": "event"
    },
    {
      "anonymous": false,
      "inputs": [
        {
          "indexed": false,
          "internalType": "uint256",
          "name": "newBossHp",
          "type": "uint256"
        },
        {
          "indexed": false,
          "internalType": "uint256",
          "name": "newPlayerHp",
          "type": "uint256"
        }
      ],
      "name": "AttackComplete",
      "type": "event"
    },
    {
      "anonymous": false,
      "inputs": [
        {
          "indexed": false,
          "internalType": "address",
          "name": "sender",
          "type": "address"
        },
        {
          "indexed": false,
          "internalType": "uint256",
          "name": "tokenId",
          "type": "uint256"
        },
        {
          "indexed": false,
          "internalType": "uint256",
          "name": "characterIndex",
          "type": "uint256"
        }
      ],
      "name": "CharacterNFTMinted",
      "type": "event"
    },
    {
      "anonymous": false,
      "inputs": [
        {
          "indexed": true,
          "internalType": "address",
          "name": "from",
          "type": "address"
        },
        {
          "indexed": true,
          "internalType": "address",
          "name": "to",
          "type": "address"
        },
        {
          "indexed": true,
          "internalType": "uint256",
          "name": "tokenId",
          "type": "uint256"
        }
      ],
      "name": "Transfer",
      "type": "event"
    },
    {
      "inputs": [
        {
          "internalType": "address",
          "name": "to",
          "type": "address"
        },
        {
          "internalType": "uint256",
          "name": "tokenId",
          "type": "uint256"
        }
      ],
      "name": "approve",
      "outputs": [],
      "stateMutability": "nonpayable",
      "type": "function"
    },
    {
      "inputs": [],
      "name": "attackBoss",
      "outputs": [],
      "stateMutability": "nonpayable",
      "type": "function"
    },
    {
      "inputs": [
        {
          "internalType": "address",
          "name": "owner",
          "type": "address"
        }
      ],
      "name": "balanceOf",
      "outputs": [
        {
          "internalType": "uint256",
          "name": "",
          "type": "uint256"
        }
      ],
      "stateMutability": "view",
      "type": "function"
    },
    {
      "inputs": [],
      "name": "bigBoss",
      "outputs": [
        {
          "internalType": "uint32",
          "name": "hp",
          "type": "uint32"
        },
        {
          "internalType": "uint32",
          "name": "maxHp",
          "type": "uint32"
        },
        {
          "internalType": "uint32",
          "name": "attackDamage",
          "type": "uint32"
        },
        {
          "internalType": "string",
          "name": "name",
          "type": "string"
        },
        {
          "internalType": "string",
          "name": "imageURI",
          "type": "string"
        }
      ],
      "stateMutability": "view",
      "type": "function"
    },
    {
      "inputs": [],
      "name": "checkIfUserHasNFT",
      "outputs": [
        {
          "components": [
            {
              "internalType": "uint32",
              "name": "hp",
              "type": "uint32"
            },
            {
              "internalType": "uint32",
              "name": "maxHp",
              "type": "uint32"
            },
            {
              "internalType": "uint32",
              "name": "characterIndex",
              "type": "uint32"
            },
            {
              "internalType": "uint32",
              "name": "attackDamage",
              "type": "uint32"
            },
            {
              "internalType": "uint32",
              "name": "superAttackDamage",
              "type": "uint32"
            },
            {
              "internalType": "uint32",
              "name": "defense",
              "type": "uint32"
            },
            {
              "internalType": "string",
              "name": "name",
              "type": "string"
            },
            {
              "internalType": "string",
              "name": "imageURI",
              "type": "string"
            }
          ],
          "internalType": "struct GodOfWarBattle.CharacterAttributes",
          "name": "",
          "type": "tuple"
        }
      ],
      "stateMutability": "view",
      "type": "function"
    },
    {
      "inputs": [],
      "name": "getAllDefaultCharacters",
      "outputs": [
        {
          "components": [
            {
              "internalType": "uint32",
              "name": "hp",
              "type": "uint32"
            },
            {
              "internalType": "uint32",
              "name": "maxHp",
              "type": "uint32"
            },
            {
              "internalType": "uint32",
              "name": "characterIndex",
              "type": "uint32"
            },
            {
              "internalType": "uint32",
              "name": "attackDamage",
              "type": "uint32"
            },
            {
              "internalType": "uint32",
              "name": "superAttackDamage",
              "type": "uint32"
            },
            {
              "internalType": "uint32",
              "name": "defense",
              "type": "uint32"
            },
            {
              "internalType": "string",
              "name": "name",
              "type": "string"
            },
            {
              "internalType": "string",
              "name": "imageURI",
              "type": "string"
            }
          ],
          "internalType": "struct GodOfWarBattle.CharacterAttributes[]",
          "name": "",
          "type": "tuple[]"
        }
      ],
      "stateMutability": "view",
      "type": "function"
    },
    {
      "inputs": [
        {
          "internalType": "uint256",
          "name": "tokenId",
          "type": "uint256"
        }
      ],
      "name": "getApproved",
      "outputs": [
        {
          "internalType": "address",
          "name": "",
          "type": "address"
        }
      ],
      "stateMutability": "view",
      "type": "function"
    },
    {
      "inputs": [],
      "name": "getBoss",
      "outputs": [
        {
          "components": [
            {
              "internalType": "uint32",
              "name": "hp",
              "type": "uint32"
            },
            {
              "internalType": "uint32",
              "name": "maxHp",
              "type": "uint32"
            },
            {
              "internalType": "uint32",
              "name": "attackDamage",
              "type": "uint32"
            },
            {
              "internalType": "string",
              "name": "name",
              "type": "string"
            },
            {
              "internalType": "string",
              "name": "imageURI",
              "type": "string"
            }
          ],
          "internalType": "struct GodOfWarBattle.BigBoss",
          "name": "",
          "type": "tuple"
        }
      ],
      "stateMutability": "view",
      "type": "function"
    },
    {
      "inputs": [
        {
          "internalType": "address",
          "name": "owner",
          "type": "address"
        },
        {
          "internalType": "address",
          "name": "operator",
          "type": "address"
        }
      ],
      "name": "isApprovedForAll",
      "outputs": [
        {
          "internalType": "bool",
          "name": "",
          "type": "bool"
        }
      ],
      "stateMutability": "view",
      "type": "function"
    },
    {
      "inputs": [
        {
          "internalType": "uint32",
          "name": "_characterIndex",
          "type": "uint32"
        }
      ],
      "name": "mintCharacterNFT",
      "outputs": [],
      "stateMutability": "nonpayable",
      "type": "function"
    },
    {
      "inputs": [],
      "name": "name",
      "outputs": [
        {
          "internalType": "string",
          "name": "",
          "type": "string"
        }
      ],
      "stateMutability": "view",
      "type": "function"
    },
    {
      "inputs": [
        {
          "internalType": "address",
          "name": "",
          "type": "address"
        }
      ],
      "name": "nftHolders",
      "outputs": [
        {
          "internalType": "uint256",
          "name": "",
          "type": "uint256"
        }
      ],
      "stateMutability": "view",
      "type": "function"
    },
    {
      "inputs": [
        {
          "internalType": "uint256",
          "name": "",
          "type": "uint256"
        }
      ],
      "name": "nftHoldersAttributes",
      "outputs": [
        {
          "internalType": "uint32",
          "name": "hp",
          "type": "uint32"
        },
        {
          "internalType": "uint32",
          "name": "maxHp",
          "type": "uint32"
        },
        {
          "internalType": "uint32",
          "name": "characterIndex",
          "type": "uint32"
        },
        {
          "internalType": "uint32",
          "name": "attackDamage",
          "type": "uint32"
        },
        {
          "internalType": "uint32",
          "name": "superAttackDamage",
          "type": "uint32"
        },
        {
          "internalType": "uint32",
          "name": "defense",
          "type": "uint32"
        },
        {
          "internalType": "string",
          "name": "name",
          "type": "string"
        },
        {
          "internalType": "string",
          "name": "imageURI",
          "type": "string"
        }
      ],
      "stateMutability": "view",
      "type": "function"
    },
    {
      "inputs": [
        {
          "internalType": "uint256",
          "name": "tokenId",
          "type": "uint256"
        }
      ],
      "name": "ownerOf",
      "outputs": [
        {
          "internalType": "address",
          "name": "",
          "type": "address"
        }
      ],
      "stateMutability": "view",
      "type": "function"
    },
    {
      "inputs": [
        {
          "internalType": "address",
          "name": "from",
          "type": "address"
        },
        {
          "internalType": "address",
          "name": "to",
          "type": "address"
        },
        {
          "internalType": "uint256",
          "name": "tokenId",
          "type": "uint256"
        }
      ],
      "name": "safeTransferFrom",
      "outputs": [],
      "stateMutability": "nonpayable",
      "type": "function"
    },
    {
      "inputs": [
        {
          "internalType": "address",
          "name": "from",
          "type": "address"
        },
        {
          "internalType": "address",
          "name": "to",
          "type": "address"
        },
        {
          "internalType": "uint256",
          "name": "tokenId",
          "type": "uint256"
        },
        {
          "internalType": "bytes",
          "name": "_data",
          "type": "bytes"
        }
      ],
      "name": "safeTransferFrom",
      "outputs": [],
      "stateMutability": "nonpayable",
      "type": "function"
    },
    {
      "inputs": [
        {
          "internalType": "address",
          "name": "operator",
          "type": "address"
        },
        {
          "internalType": "bool",
          "name": "approved",
          "type": "bool"
        }
      ],
      "name": "setApprovalForAll",
      "outputs": [],
      "stateMutability": "nonpayable",
      "type": "function"
    },
    {
      "inputs": [
        {
          "internalType": "bytes4",
          "name": "interfaceId",
          "type": "bytes4"
        }
      ],
      "name": "supportsInterface",
      "outputs": [
        {
          "internalType": "bool",
          "name": "",
          "type": "bool"
        }
      ],
      "stateMutability": "view",
      "type": "function"
    },
    {
      "inputs": [],
      "name": "symbol",
      "outputs": [
        {
          "internalType": "string",
          "name": "",
          "type": "string"
        }
      ],
      "stateMutability": "view",
      "type": "function"
    },
    {
      "inputs": [
        {
          "internalType": "uint256",
          "name": "_tokenId",
          "type": "uint256"
        }
      ],
      "name": "tokenURI",
      "outputs": [
        {
          "internalType": "string",
          "name": "",
          "type": "string"
        }
      ],
      "stateMutability": "view",
      "type": "function"
    },
    {
      "inputs": [
        {
          "internalType": "address",
          "name": "from",
          "type": "address"
        },
        {
          "internalType": "address",
          "name": "to",
          "type": "address"
        },
        {
          "internalType": "uint256",
          "name": "tokenId",
          "type": "uint256"
        }
      ],
      "name": "transferFrom",
      "outputs": [],
      "stateMutability": "nonpayable",
      "type": "function"
    }
  ],
  "bytecode": "0x60806040523480156200001157600080fd5b506040516200642538038062006425833981810160405281019062000037919062000abb565b6040518060400160405280600e81526020017f476f644f66576172426174746c650000000000000000000000000000000000008152506040518060400160405280600481526020017f474f4442000000000000000000000000000000000000000000000000000000008152508160009080519060200190620000bb92919062000823565b508060019080519060200190620000d492919062000823565b5050506040518060a001604052808363ffffffff1681526020018363ffffffff1681526020018263ffffffff16815260200185815260200184815250600a60008201518160000160006101000a81548163ffffffff021916908363ffffffff16021790555060208201518160000160046101000a81548163ffffffff021916908363ffffffff16021790555060408201518160000160086101000a81548163ffffffff021916908363ffffffff1602179055506060820151816001019080519060200190620001a592919062000823565b506080820151816002019080519060200190620001c492919062000823565b50905050620002136040518060400160405280601381526020017f426967426f737320496e697469616c697a6564000000000000000000000000008152506200069b60201b620023f61760201c565b60005b8a518163ffffffff161015620006735760096040518061010001604052808b8463ffffffff168151811062000274577f4e487b7100000000000000000000000000000000000000000000000000000000600052603260045260246000fd5b602002602001015163ffffffff1681526020018b8463ffffffff1681518110620002c7577f4e487b7100000000000000000000000000000000000000000000000000000000600052603260045260246000fd5b602002602001015163ffffffff1681526020018363ffffffff1681526020018a8463ffffffff168151811062000326577f4e487b7100000000000000000000000000000000000000000000000000000000600052603260045260246000fd5b602002602001015163ffffffff168152602001898463ffffffff168151811062000379577f4e487b7100000000000000000000000000000000000000000000000000000000600052603260045260246000fd5b602002602001015163ffffffff168152602001888463ffffffff1681518110620003cc577f4e487b7100000000000000000000000000000000000000000000000000000000600052603260045260246000fd5b602002602001015163ffffffff1681526020018d8463ffffffff16815181106200041f577f4e487b7100000000000000000000000000000000000000000000000000000000600052603260045260246000fd5b602002602001015181526020018c8463ffffffff16815181106200046c577f4e487b7100000000000000000000000000000000000000000000000000000000600052603260045260246000fd5b6020026020010151815250908060018154018082558091505060019003906000526020600020906003020160009091909190915060008201518160000160006101000a81548163ffffffff021916908363ffffffff16021790555060208201518160000160046101000a81548163ffffffff021916908363ffffffff16021790555060408201518160000160086101000a81548163ffffffff021916908363ffffffff160217905550606082015181600001600c6101000a81548163ffffffff021916908363ffffffff16021790555060808201518160000160106101000a81548163ffffffff021916908363ffffffff16021790555060a08201518160000160146101000a81548163ffffffff021916908363ffffffff16021790555060c0820151816001019080519060200190620005a892919062000823565b5060e0820151816002019080519060200190620005c792919062000823565b5050506200065d6040518060400160405280601f81526020017f64656661756c744368617261637465727320496e697469616c697a65643a20008152508c8363ffffffff168151811062000644577f4e487b7100000000000000000000000000000000000000000000000000000000600052603260045260246000fd5b60200260200101516200073e60201b6200248f1760201c565b80806200066a9062000e9e565b91505062000216565b506200068b6006620007e460201b6200252b1760201c565b5050505050505050505062000f88565b6200073b81604051602401620006b2919062000cb4565b6040516020818303038152906040527f41304fac000000000000000000000000000000000000000000000000000000007bffffffffffffffffffffffffffffffffffffffffffffffffffffffff19166020820180517bffffffffffffffffffffffffffffffffffffffffffffffffffffffff8381831617835250505050620007fa60201b60201c565b50565b620007e082826040516024016200075792919062000cd8565b6040516020818303038152906040527f4b5c4277000000000000000000000000000000000000000000000000000000007bffffffffffffffffffffffffffffffffffffffffffffffffffffffff19166020820180517bffffffffffffffffffffffffffffffffffffffffffffffffffffffff8381831617835250505050620007fa60201b60201c565b5050565b6001816000016000828254019250508190555050565b60008151905060006a636f6e736f6c652e6c6f679050602083016000808483855afa5050505050565b828054620008319062000e32565b90600052602060002090601f016020900481019282620008555760008555620008a1565b82601f106200087057805160ff1916838001178555620008a1565b82800160010185558215620008a1579182015b82811115620008a057825182559160200191906001019062000883565b5b509050620008b09190620008b4565b5090565b5b80821115620008cf576000816000905550600101620008b5565b5090565b6000620008ea620008e48462000d3c565b62000d13565b905080838252602082019050828560208602820111156200090a57600080fd5b60005b858110156200095957815167ffffffffffffffff8111156200092e57600080fd5b8086016200093d898262000a77565b855260208501945060208401935050506001810190506200090d565b5050509392505050565b60006200097a620009748462000d6b565b62000d13565b905080838252602082019050828560208602820111156200099a57600080fd5b60005b85811015620009ce5781620009b3888262000aa4565b8452602084019350602083019250506001810190506200099d565b5050509392505050565b6000620009ef620009e98462000d9a565b62000d13565b90508281526020810184848401111562000a0857600080fd5b62000a1584828562000dfc565b509392505050565b600082601f83011262000a2f57600080fd5b815162000a41848260208601620008d3565b91505092915050565b600082601f83011262000a5c57600080fd5b815162000a6e84826020860162000963565b91505092915050565b600082601f83011262000a8957600080fd5b815162000a9b848260208601620009d8565b91505092915050565b60008151905062000ab58162000f6e565b92915050565b6000806000806000806000806000806101408b8d03121562000adc57600080fd5b60008b015167ffffffffffffffff81111562000af757600080fd5b62000b058d828e0162000a1d565b9a505060208b015167ffffffffffffffff81111562000b2357600080fd5b62000b318d828e0162000a1d565b99505060408b015167ffffffffffffffff81111562000b4f57600080fd5b62000b5d8d828e0162000a4a565b98505060608b015167ffffffffffffffff81111562000b7b57600080fd5b62000b898d828e0162000a4a565b97505060808b015167ffffffffffffffff81111562000ba757600080fd5b62000bb58d828e0162000a4a565b96505060a08b015167ffffffffffffffff81111562000bd357600080fd5b62000be18d828e0162000a4a565b95505060c08b015167ffffffffffffffff81111562000bff57600080fd5b62000c0d8d828e0162000a77565b94505060e08b015167ffffffffffffffff81111562000c2b57600080fd5b62000c398d828e0162000a77565b93505061010062000c4d8d828e0162000aa4565b92505061012062000c618d828e0162000aa4565b9150509295989b9194979a5092959850565b600062000c808262000dd0565b62000c8c818562000ddb565b935062000c9e81856020860162000dfc565b62000ca98162000f5d565b840191505092915050565b6000602082019050818103600083015262000cd0818462000c73565b905092915050565b6000604082019050818103600083015262000cf4818562000c73565b9050818103602083015262000d0a818462000c73565b90509392505050565b600062000d1f62000d32565b905062000d2d828262000e68565b919050565b6000604051905090565b600067ffffffffffffffff82111562000d5a5762000d5962000f2e565b5b602082029050602081019050919050565b600067ffffffffffffffff82111562000d895762000d8862000f2e565b5b602082029050602081019050919050565b600067ffffffffffffffff82111562000db85762000db762000f2e565b5b62000dc38262000f5d565b9050602081019050919050565b600081519050919050565b600082825260208201905092915050565b600063ffffffff82169050919050565b60005b8381101562000e1c57808201518184015260208101905062000dff565b8381111562000e2c576000848401525b50505050565b6000600282049050600182168062000e4b57607f821691505b6020821081141562000e625762000e6162000eff565b5b50919050565b62000e738262000f5d565b810181811067ffffffffffffffff8211171562000e955762000e9462000f2e565b5b80604052505050565b600062000eab8262000dec565b915063ffffffff82141562000ec55762000ec462000ed0565b5b600182019050919050565b7f4e487b7100000000000000000000000000000000000000000000000000000000600052601160045260246000fd5b7f4e487b7100000000000000000000000000000000000000000000000000000000600052602260045260246000fd5b7f4e487b7100000000000000000000000000000000000000000000000000000000600052604160045260246000fd5b6000601f19601f8301169050919050565b62000f798162000dec565b811462000f8557600080fd5b50565b61548d8062000f986000396000f3fe608060405234801561001057600080fd5b50600436106101375760003560e01c80637df124a1116100b8578063b953084e1161007c578063b953084e14610369578063c76d9e7d14610387578063c87b56dd146103a5578063c8cf27f4146103d5578063d4f24c5b146103f3578063e985e9c5146103fd57610137565b80637df124a1146102c157806395d89b41146102f1578063a22cb4651461030f578063a9c326791461032b578063b88d4fde1461034d57610137565b80632910e22d116100ff5780632910e22d146101f25780633ba9bf161461020e57806342842e0e146102455780636352211e1461026157806370a082311461029157610137565b806301ffc9a71461013c57806306fdde031461016c578063081812fc1461018a578063095ea7b3146101ba57806323b872dd146101d6575b600080fd5b6101566004803603810190610151919061392d565b61042d565b604051610163919061429d565b60405180910390f35b61017461050f565b60405161018191906142b8565b60405180910390f35b6101a4600480360381019061019f919061397f565b6105a1565b6040516101b191906141dd565b60405180910390f35b6101d460048036038101906101cf91906138f1565b610626565b005b6101f060048036038101906101eb91906137eb565b61073e565b005b61020c600480360381019061020791906139a8565b61079e565b005b6102286004803603810190610223919061397f565b610e3a565b60405161023c9897969594939291906146b0565b60405180910390f35b61025f600480360381019061025a91906137eb565b610ff2565b005b61027b6004803603810190610276919061397f565b611012565b60405161028891906141dd565b60405180910390f35b6102ab60048036038101906102a69190613786565b6110c4565b6040516102b8919061460b565b60405180910390f35b6102db60048036038101906102d69190613786565b61117c565b6040516102e8919061460b565b60405180910390f35b6102f9611194565b60405161030691906142b8565b60405180910390f35b610329600480360381019061032491906138b5565b611226565b005b61033361123c565b60405161034495949392919061464f565b60405180910390f35b6103676004803603810190610362919061383a565b6113a0565b005b610371611402565b60405161037e919061427b565b60405180910390f35b61038f61166a565b60405161039c91906145c7565b60405180910390f35b6103bf60048036038101906103ba919061397f565b61181a565b6040516103cc91906142b8565b60405180910390f35b6103dd611b38565b6040516103ea91906145e9565b60405180910390f35b6103fb611dcd565b005b610417600480360381019061041291906137af565b612362565b604051610424919061429d565b60405180910390f35b60007f80ac58cd000000000000000000000000000000000000000000000000000000007bffffffffffffffffffffffffffffffffffffffffffffffffffffffff1916827bffffffffffffffffffffffffffffffffffffffffffffffffffffffff191614806104f857507f5b5e139f000000000000000000000000000000000000000000000000000000007bffffffffffffffffffffffffffffffffffffffffffffffffffffffff1916827bffffffffffffffffffffffffffffffffffffffffffffffffffffffff1916145b80610508575061050782612541565b5b9050919050565b60606000805461051e90614a40565b80601f016020809104026020016040519081016040528092919081815260200182805461054a90614a40565b80156105975780601f1061056c57610100808354040283529160200191610597565b820191906000526020600020905b81548152906001019060200180831161057a57829003601f168201915b5050505050905090565b60006105ac826125ab565b6105eb576040517f08c379a00000000000000000000000000000000000000000000000000000000081526004016105e290614547565b60405180910390fd5b6004600083815260200190815260200160002060009054906101000a900473ffffffffffffffffffffffffffffffffffffffff169050919050565b600061063182611012565b90508073ffffffffffffffffffffffffffffffffffffffff168373ffffffffffffffffffffffffffffffffffffffff1614156106a2576040517f08c379a000000000000000000000000000000000000000000000000000000000815260040161069990614587565b60405180910390fd5b8073ffffffffffffffffffffffffffffffffffffffff166106c1612617565b73ffffffffffffffffffffffffffffffffffffffff1614806106f057506106ef816106ea612617565b612362565b5b61072f576040517f08c379a0000000000000000000000000000000000000000000000000000000008152600401610726906144a7565b60405180910390fd5b610739838361261f565b505050565b61074f610749612617565b826126d8565b61078e576040517f08c379a0000000000000000000000000000000000000000000000000000000008152600401610785906145a7565b60405180910390fd5b6107998383836127b6565b505050565b60006107aa6006612a12565b90506107b63382612a20565b60405180610100016040528060098463ffffffff1681548110610802577f4e487b7100000000000000000000000000000000000000000000000000000000600052603260045260246000fd5b906000526020600020906003020160000160009054906101000a900463ffffffff1663ffffffff16815260200160098463ffffffff168154811061086f577f4e487b7100000000000000000000000000000000000000000000000000000000600052603260045260246000fd5b906000526020600020906003020160000160049054906101000a900463ffffffff1663ffffffff1681526020018363ffffffff16815260200160098463ffffffff16815481106108e8577f4e487b7100000000000000000000000000000000000000000000000000000000600052603260045260246000fd5b9060005260206000209060030201600001600c9054906101000a900463ffffffff1663ffffffff16815260200160098463ffffffff1681548110610955577f4e487b7100000000000000000000000000000000000000000000000000000000600052603260045260246000fd5b906000526020600020906003020160000160109054906101000a900463ffffffff1663ffffffff16815260200160098463ffffffff16815481106109c2577f4e487b7100000000000000000000000000000000000000000000000000000000600052603260045260246000fd5b906000526020600020906003020160000160149054906101000a900463ffffffff1663ffffffff16815260200160098463ffffffff1681548110610a2f577f4e487b7100000000000000000000000000000000000000000000000000000000600052603260045260246000fd5b90600052602060002090600302016001018054610a4b90614a40565b80601f0160208091040260200160405190810160405280929190818152602001828054610a7790614a40565b8015610ac45780601f10610a9957610100808354040283529160200191610ac4565b820191906000526020600020905b815481529060010190602001808311610aa757829003601f168201915b5050505050815260200160098463ffffffff1681548110610b0e577f4e487b7100000000000000000000000000000000000000000000000000000000600052603260045260246000fd5b90600052602060002090600302016002018054610b2a90614a40565b80601f0160208091040260200160405190810160405280929190818152602001828054610b5690614a40565b8015610ba35780601f10610b7857610100808354040283529160200191610ba3565b820191906000526020600020905b815481529060010190602001808311610b8657829003601f168201915b50505050508152506008600083815260200190815260200160002060008201518160000160006101000a81548163ffffffff021916908363ffffffff16021790555060208201518160000160046101000a81548163ffffffff021916908363ffffffff16021790555060408201518160000160086101000a81548163ffffffff021916908363ffffffff160217905550606082015181600001600c6101000a81548163ffffffff021916908363ffffffff16021790555060808201518160000160106101000a81548163ffffffff021916908363ffffffff16021790555060a08201518160000160146101000a81548163ffffffff021916908363ffffffff16021790555060c0820151816001019080519060200190610cc4929190613553565b5060e0820151816002019080519060200190610ce1929190613553565b5090505080600760003373ffffffffffffffffffffffffffffffffffffffff1673ffffffffffffffffffffffffffffffffffffffff168152602001908152602001600020819055507f4bc303fd457a97b4691b9af582ce71868a3d258638c8d4f8c60988a0f0bfb8cd338284604051610d5c93929190614244565b60405180910390a1610e2c6040518060600160405280602e81526020016153c7602e9139828463ffffffff16600860008681526020019081526020016000206002018054610da990614a40565b80601f0160208091040260200160405190810160405280929190818152602001828054610dd590614a40565b8015610e225780601f10610df757610100808354040283529160200191610e22565b820191906000526020600020905b815481529060010190602001808311610e0557829003601f168201915b5050505050612a3e565b610e36600661252b565b5050565b60086020528060005260406000206000915090508060000160009054906101000a900463ffffffff16908060000160049054906101000a900463ffffffff16908060000160089054906101000a900463ffffffff169080600001600c9054906101000a900463ffffffff16908060000160109054906101000a900463ffffffff16908060000160149054906101000a900463ffffffff1690806001018054610ee190614a40565b80601f0160208091040260200160405190810160405280929190818152602001828054610f0d90614a40565b8015610f5a5780601f10610f2f57610100808354040283529160200191610f5a565b820191906000526020600020905b815481529060010190602001808311610f3d57829003601f168201915b505050505090806002018054610f6f90614a40565b80601f0160208091040260200160405190810160405280929190818152602001828054610f9b90614a40565b8015610fe85780601f10610fbd57610100808354040283529160200191610fe8565b820191906000526020600020905b815481529060010190602001808311610fcb57829003601f168201915b5050505050905088565b61100d838383604051806020016040528060008152506113a0565b505050565b6000806002600084815260200190815260200160002060009054906101000a900473ffffffffffffffffffffffffffffffffffffffff169050600073ffffffffffffffffffffffffffffffffffffffff168173ffffffffffffffffffffffffffffffffffffffff1614156110bb576040517f08c379a00000000000000000000000000000000000000000000000000000000081526004016110b290614507565b60405180910390fd5b80915050919050565b60008073ffffffffffffffffffffffffffffffffffffffff168273ffffffffffffffffffffffffffffffffffffffff161415611135576040517f08c379a000000000000000000000000000000000000000000000000000000000815260040161112c906144e7565b60405180910390fd5b600360008373ffffffffffffffffffffffffffffffffffffffff1673ffffffffffffffffffffffffffffffffffffffff168152602001908152602001600020549050919050565b60076020528060005260406000206000915090505481565b6060600180546111a390614a40565b80601f01602080910402602001604051908101604052809291908181526020018280546111cf90614a40565b801561121c5780601f106111f15761010080835404028352916020019161121c565b820191906000526020600020905b8154815290600101906020018083116111ff57829003601f168201915b5050505050905090565b611238611231612617565b8383612ae0565b5050565b600a8060000160009054906101000a900463ffffffff16908060000160049054906101000a900463ffffffff16908060000160089054906101000a900463ffffffff169080600101805461128f90614a40565b80601f01602080910402602001604051908101604052809291908181526020018280546112bb90614a40565b80156113085780601f106112dd57610100808354040283529160200191611308565b820191906000526020600020905b8154815290600101906020018083116112eb57829003601f168201915b50505050509080600201805461131d90614a40565b80601f016020809104026020016040519081016040528092919081815260200182805461134990614a40565b80156113965780601f1061136b57610100808354040283529160200191611396565b820191906000526020600020905b81548152906001019060200180831161137957829003601f168201915b5050505050905085565b6113b16113ab612617565b836126d8565b6113f0576040517f08c379a00000000000000000000000000000000000000000000000000000000081526004016113e7906145a7565b60405180910390fd5b6113fc84848484612c4d565b50505050565b60606009805480602002602001604051908101604052809291908181526020016000905b828210156116615783829060005260206000209060030201604051806101000160405290816000820160009054906101000a900463ffffffff1663ffffffff1663ffffffff1681526020016000820160049054906101000a900463ffffffff1663ffffffff1663ffffffff1681526020016000820160089054906101000a900463ffffffff1663ffffffff1663ffffffff16815260200160008201600c9054906101000a900463ffffffff1663ffffffff1663ffffffff1681526020016000820160109054906101000a900463ffffffff1663ffffffff1663ffffffff1681526020016000820160149054906101000a900463ffffffff1663ffffffff1663ffffffff16815260200160018201805461153e90614a40565b80601f016020809104026020016040519081016040528092919081815260200182805461156a90614a40565b80156115b75780601f1061158c576101008083540402835291602001916115b7565b820191906000526020600020905b81548152906001019060200180831161159a57829003601f168201915b505050505081526020016002820180546115d090614a40565b80601f01602080910402602001604051908101604052809291908181526020018280546115fc90614a40565b80156116495780601f1061161e57610100808354040283529160200191611649565b820191906000526020600020905b81548152906001019060200180831161162c57829003601f168201915b50505050508152505081526020019060010190611426565b50505050905090565b6116726135d9565b600a6040518060a00160405290816000820160009054906101000a900463ffffffff1663ffffffff1663ffffffff1681526020016000820160049054906101000a900463ffffffff1663ffffffff1663ffffffff1681526020016000820160089054906101000a900463ffffffff1663ffffffff1663ffffffff16815260200160018201805461170190614a40565b80601f016020809104026020016040519081016040528092919081815260200182805461172d90614a40565b801561177a5780601f1061174f5761010080835404028352916020019161177a565b820191906000526020600020905b81548152906001019060200180831161175d57829003601f168201915b5050505050815260200160028201805461179390614a40565b80601f01602080910402602001604051908101604052809291908181526020018280546117bf90614a40565b801561180c5780601f106117e15761010080835404028352916020019161180c565b820191906000526020600020905b8154815290600101906020018083116117ef57829003601f168201915b505050505081525050905090565b6060600060086000848152602001908152602001600020604051806101000160405290816000820160009054906101000a900463ffffffff1663ffffffff1663ffffffff1681526020016000820160049054906101000a900463ffffffff1663ffffffff1663ffffffff1681526020016000820160089054906101000a900463ffffffff1663ffffffff1663ffffffff16815260200160008201600c9054906101000a900463ffffffff1663ffffffff1663ffffffff1681526020016000820160109054906101000a900463ffffffff1663ffffffff1663ffffffff1681526020016000820160149054906101000a900463ffffffff1663ffffffff1663ffffffff16815260200160018201805461193190614a40565b80601f016020809104026020016040519081016040528092919081815260200182805461195d90614a40565b80156119aa5780601f1061197f576101008083540402835291602001916119aa565b820191906000526020600020905b81548152906001019060200180831161198d57829003601f168201915b505050505081526020016002820180546119c390614a40565b80601f01602080910402602001604051908101604052809291908181526020018280546119ef90614a40565b8015611a3c5780601f10611a1157610100808354040283529160200191611a3c565b820191906000526020600020905b815481529060010190602001808311611a1f57829003601f168201915b50505050508152505090506000611a5c826000015163ffffffff16612ca9565b90506000611a73836020015163ffffffff16612ca9565b90506000611a8a846060015163ffffffff16612ca9565b90506000611aa1856080015163ffffffff16612ca9565b90506000611ab88660a0015163ffffffff16612ca9565b90506000611b028760c00151611acd8b612ca9565b8960e001518989898989604051602001611aee9897969594939291906140e6565b604051602081830303815290604052612e56565b9050600081604051602001611b1791906141bb565b60405160208183030381529060405290508098505050505050505050919050565b611b4061361a565b6000600760003373ffffffffffffffffffffffffffffffffffffffff1673ffffffffffffffffffffffffffffffffffffffff1681526020019081526020016000205490506000811115611dbc5760086000828152602001908152602001600020604051806101000160405290816000820160009054906101000a900463ffffffff1663ffffffff1663ffffffff1681526020016000820160049054906101000a900463ffffffff1663ffffffff1663ffffffff1681526020016000820160089054906101000a900463ffffffff1663ffffffff1663ffffffff16815260200160008201600c9054906101000a900463ffffffff1663ffffffff1663ffffffff1681526020016000820160109054906101000a900463ffffffff1663ffffffff1663ffffffff1681526020016000820160149054906101000a900463ffffffff1663ffffffff1663ffffffff168152602001600182018054611ca090614a40565b80601f0160208091040260200160405190810160405280929190818152602001828054611ccc90614a40565b8015611d195780601f10611cee57610100808354040283529160200191611d19565b820191906000526020600020905b815481529060010190602001808311611cfc57829003601f168201915b50505050508152602001600282018054611d3290614a40565b80601f0160208091040260200160405190810160405280929190818152602001828054611d5e90614a40565b8015611dab5780601f10611d8057610100808354040283529160200191611dab565b820191906000526020600020905b815481529060010190602001808311611d8e57829003601f168201915b505050505081525050915050611dca565b611dc461361a565b80925050505b90565b6000600a60000160009054906101000a900463ffffffff1663ffffffff1611611e2b576040517f08c379a0000000000000000000000000000000000000000000000000000000008152600401611e2290614407565b60405180910390fd5b600060086000600760003373ffffffffffffffffffffffffffffffffffffffff1673ffffffffffffffffffffffffffffffffffffffff168152602001908152602001600020548152602001908152602001600020905060008160000160009054906101000a900463ffffffff1663ffffffff1611611ede576040517f08c379a0000000000000000000000000000000000000000000000000000000008152600401611ed5906144c7565b60405180910390fd5b611fc26040518060600160405280603c815260200161541c603c9139826001018054611f0990614a40565b80601f0160208091040260200160405190810160405280929190818152602001828054611f3590614a40565b8015611f825780601f10611f5757610100808354040283529160200191611f82565b820191906000526020600020905b815481529060010190602001808311611f6557829003601f168201915b50505050508360000160009054906101000a900463ffffffff1663ffffffff1684600001600c9054906101000a900463ffffffff1663ffffffff16613014565b6120c66040518060400160405280601b81526020017f426f73732025732068617320257320485020616e642025732041440000000000815250600a600101805461200b90614a40565b80601f016020809104026020016040519081016040528092919081815260200182805461203790614a40565b80156120845780601f1061205957610100808354040283529160200191612084565b820191906000526020600020905b81548152906001019060200180831161206757829003601f168201915b5050505050600a60000160009054906101000a900463ffffffff1663ffffffff16600a60000160089054906101000a900463ffffffff1663ffffffff16613014565b80600001600c9054906101000a900463ffffffff1663ffffffff16600a60000160009054906101000a900463ffffffff1663ffffffff16101561214e576000600a60000160006101000a81548163ffffffff021916908363ffffffff1602179055506121496040518060600160405280602781526020016153f5602791396123f6565b6121a5565b80600001600c9054906101000a900463ffffffff16600a60000160008282829054906101000a900463ffffffff166121869190614934565b92506101000a81548163ffffffff021916908363ffffffff1602179055505b600a60000160089054906101000a900463ffffffff1663ffffffff168160000160009054906101000a900463ffffffff1663ffffffff16101561222c5760008160000160006101000a81548163ffffffff021916908363ffffffff1602179055506122276040518060600160405280602f8152602001615398602f91396123f6565b612284565b600a60000160089054906101000a900463ffffffff168160000160009054906101000a900463ffffffff166122619190614934565b8160000160006101000a81548163ffffffff021916908363ffffffff1602179055505b6122c160405180606001604052806025815260200161530b60259139600a60000160009054906101000a900463ffffffff1663ffffffff166130b6565b6122fd604051806060016040528060288152602001615370602891398260000160009054906101000a900463ffffffff1663ffffffff166130b6565b7f838ab28464562786a6c4ab2311964b82fa60bd9b14aa7e856af1f3f18d41a414600a60000160009054906101000a900463ffffffff168260000160009054906101000a900463ffffffff16604051612357929190614626565b60405180910390a150565b6000600560008473ffffffffffffffffffffffffffffffffffffffff1673ffffffffffffffffffffffffffffffffffffffff16815260200190815260200160002060008373ffffffffffffffffffffffffffffffffffffffff1673ffffffffffffffffffffffffffffffffffffffff16815260200190815260200160002060009054906101000a900460ff16905092915050565b61248c8160405160240161240a91906142b8565b6040516020818303038152906040527f41304fac000000000000000000000000000000000000000000000000000000007bffffffffffffffffffffffffffffffffffffffffffffffffffffffff19166020820180517bffffffffffffffffffffffffffffffffffffffffffffffffffffffff8381831617835250505050613152565b50565b61252782826040516024016124a59291906142da565b6040516020818303038152906040527f4b5c4277000000000000000000000000000000000000000000000000000000007bffffffffffffffffffffffffffffffffffffffffffffffffffffffff19166020820180517bffffffffffffffffffffffffffffffffffffffffffffffffffffffff8381831617835250505050613152565b5050565b6001816000016000828254019250508190555050565b60007f01ffc9a7000000000000000000000000000000000000000000000000000000007bffffffffffffffffffffffffffffffffffffffffffffffffffffffff1916827bffffffffffffffffffffffffffffffffffffffffffffffffffffffff1916149050919050565b60008073ffffffffffffffffffffffffffffffffffffffff166002600084815260200190815260200160002060009054906101000a900473ffffffffffffffffffffffffffffffffffffffff1673ffffffffffffffffffffffffffffffffffffffff1614159050919050565b600033905090565b816004600083815260200190815260200160002060006101000a81548173ffffffffffffffffffffffffffffffffffffffff021916908373ffffffffffffffffffffffffffffffffffffffff160217905550808273ffffffffffffffffffffffffffffffffffffffff1661269283611012565b73ffffffffffffffffffffffffffffffffffffffff167f8c5be1e5ebec7d5bd14f71427d1e84f3dd0314c0f7b2291e5b200ac8c7c3b92560405160405180910390a45050565b60006126e3826125ab565b612722576040517f08c379a000000000000000000000000000000000000000000000000000000000815260040161271990614487565b60405180910390fd5b600061272d83611012565b90508073ffffffffffffffffffffffffffffffffffffffff168473ffffffffffffffffffffffffffffffffffffffff16148061279c57508373ffffffffffffffffffffffffffffffffffffffff16612784846105a1565b73ffffffffffffffffffffffffffffffffffffffff16145b806127ad57506127ac8185612362565b5b91505092915050565b8273ffffffffffffffffffffffffffffffffffffffff166127d682611012565b73ffffffffffffffffffffffffffffffffffffffff161461282c576040517f08c379a000000000000000000000000000000000000000000000000000000000815260040161282390614567565b60405180910390fd5b600073ffffffffffffffffffffffffffffffffffffffff168273ffffffffffffffffffffffffffffffffffffffff16141561289c576040517f08c379a000000000000000000000000000000000000000000000000000000000815260040161289390614447565b60405180910390fd5b6128a783838361317b565b6128b260008261261f565b6001600360008573ffffffffffffffffffffffffffffffffffffffff1673ffffffffffffffffffffffffffffffffffffffff16815260200190815260200160002060008282546129029190614900565b925050819055506001600360008473ffffffffffffffffffffffffffffffffffffffff1673ffffffffffffffffffffffffffffffffffffffff1681526020019081526020016000206000828254612959919061481f565b92505081905550816002600083815260200190815260200160002060006101000a81548173ffffffffffffffffffffffffffffffffffffffff021916908373ffffffffffffffffffffffffffffffffffffffff160217905550808273ffffffffffffffffffffffffffffffffffffffff168473ffffffffffffffffffffffffffffffffffffffff167fddf252ad1be2c89b69c2b068fc378daa952ba7f163c4a11628f55a4df523b3ef60405160405180910390a4505050565b600081600001549050919050565b612a3a828260405180602001604052806000815250613180565b5050565b612ada84848484604051602401612a589493929190614394565b6040516020818303038152906040527fa54ed4bd000000000000000000000000000000000000000000000000000000007bffffffffffffffffffffffffffffffffffffffffffffffffffffffff19166020820180517bffffffffffffffffffffffffffffffffffffffffffffffffffffffff8381831617835250505050613152565b50505050565b8173ffffffffffffffffffffffffffffffffffffffff168373ffffffffffffffffffffffffffffffffffffffff161415612b4f576040517f08c379a0000000000000000000000000000000000000000000000000000000008152600401612b4690614467565b60405180910390fd5b80600560008573ffffffffffffffffffffffffffffffffffffffff1673ffffffffffffffffffffffffffffffffffffffff16815260200190815260200160002060008473ffffffffffffffffffffffffffffffffffffffff1673ffffffffffffffffffffffffffffffffffffffff16815260200190815260200160002060006101000a81548160ff0219169083151502179055508173ffffffffffffffffffffffffffffffffffffffff168373ffffffffffffffffffffffffffffffffffffffff167f17307eab39ab6107e8899845ad3d59bd9653f200f220920489ca2b5937696c3183604051612c40919061429d565b60405180910390a3505050565b612c588484846127b6565b612c64848484846131db565b612ca3576040517f08c379a0000000000000000000000000000000000000000000000000000000008152600401612c9a906143e7565b60405180910390fd5b50505050565b60606000821415612cf1576040518060400160405280600181526020017f30000000000000000000000000000000000000000000000000000000000000008152509050612e51565b600082905060005b60008214612d23578080612d0c90614aa3565b915050600a82612d1c9190614875565b9150612cf9565b60008167ffffffffffffffff811115612d65577f4e487b7100000000000000000000000000000000000000000000000000000000600052604160045260246000fd5b6040519080825280601f01601f191660200182016040528015612d975781602001600182028036833780820191505090505b5090505b60008514612e4a57600182612db09190614900565b9150600a85612dbf9190614aec565b6030612dcb919061481f565b60f81b818381518110612e07577f4e487b7100000000000000000000000000000000000000000000000000000000600052603260045260246000fd5b60200101907effffffffffffffffffffffffffffffffffffffffffffffffffffffffffffff1916908160001a905350600a85612e439190614875565b9450612d9b565b8093505050505b919050565b60606000825190506000811415612e7f576040518060200160405280600081525091505061300f565b60006003600283612e90919061481f565b612e9a9190614875565b6004612ea691906148a6565b90506000602082612eb7919061481f565b67ffffffffffffffff811115612ef6577f4e487b7100000000000000000000000000000000000000000000000000000000600052604160045260246000fd5b6040519080825280601f01601f191660200182016040528015612f285781602001600182028036833780820191505090505b5090506000604051806060016040528060408152602001615330604091399050600181016020830160005b86811015612fcc5760038101905062ffffff818a015116603f8160121c168401518060081b905060ff603f83600c1c1686015116810190508060081b905060ff603f8360061c1686015116810190508060081b905060ff603f831686015116810190508060e01b90508084526004840193505050612f53565b506003860660018114612fe65760028114612ff657613001565b613d3d60f01b6002830352613001565b603d60f81b60018303525b508484525050819450505050505b919050565b6130b08484848460405160240161302e9493929190614311565b6040516020818303038152906040527fd5cf17d0000000000000000000000000000000000000000000000000000000007bffffffffffffffffffffffffffffffffffffffffffffffffffffffff19166020820180517bffffffffffffffffffffffffffffffffffffffffffffffffffffffff8381831617835250505050613152565b50505050565b61314e82826040516024016130cc929190614364565b6040516020818303038152906040527f9710a9d0000000000000000000000000000000000000000000000000000000007bffffffffffffffffffffffffffffffffffffffffffffffffffffffff19166020820180517bffffffffffffffffffffffffffffffffffffffffffffffffffffffff8381831617835250505050613152565b5050565b60008151905060006a636f6e736f6c652e6c6f679050602083016000808483855afa5050505050565b505050565b61318a8383613372565b61319760008484846131db565b6131d6576040517f08c379a00000000000000000000000000000000000000000000000000000000081526004016131cd906143e7565b60405180910390fd5b505050565b60006131fc8473ffffffffffffffffffffffffffffffffffffffff16613540565b15613365578373ffffffffffffffffffffffffffffffffffffffff1663150b7a02613225612617565b8786866040518563ffffffff1660e01b815260040161324794939291906141f8565b602060405180830381600087803b15801561326157600080fd5b505af192505050801561329257506040513d601f19601f8201168201806040525081019061328f9190613956565b60015b613315573d80600081146132c2576040519150601f19603f3d011682016040523d82523d6000602084013e6132c7565b606091505b5060008151141561330d576040517f08c379a0000000000000000000000000000000000000000000000000000000008152600401613304906143e7565b60405180910390fd5b805181602001fd5b63150b7a0260e01b7bffffffffffffffffffffffffffffffffffffffffffffffffffffffff1916817bffffffffffffffffffffffffffffffffffffffffffffffffffffffff19161491505061336a565b600190505b949350505050565b600073ffffffffffffffffffffffffffffffffffffffff168273ffffffffffffffffffffffffffffffffffffffff1614156133e2576040517f08c379a00000000000000000000000000000000000000000000000000000000081526004016133d990614527565b60405180910390fd5b6133eb816125ab565b1561342b576040517f08c379a000000000000000000000000000000000000000000000000000000000815260040161342290614427565b60405180910390fd5b6134376000838361317b565b6001600360008473ffffffffffffffffffffffffffffffffffffffff1673ffffffffffffffffffffffffffffffffffffffff1681526020019081526020016000206000828254613487919061481f565b92505081905550816002600083815260200190815260200160002060006101000a81548173ffffffffffffffffffffffffffffffffffffffff021916908373ffffffffffffffffffffffffffffffffffffffff160217905550808273ffffffffffffffffffffffffffffffffffffffff16600073ffffffffffffffffffffffffffffffffffffffff167fddf252ad1be2c89b69c2b068fc378daa952ba7f163c4a11628f55a4df523b3ef60405160405180910390a45050565b600080823b905060008111915050919050565b82805461355f90614a40565b90600052602060002090601f01602090048101928261358157600085556135c8565b82601f1061359a57805160ff19168380011785556135c8565b828001600101855582156135c8579182015b828111156135c75782518255916020019190600101906135ac565b5b5090506135d59190613683565b5090565b6040518060a00160405280600063ffffffff168152602001600063ffffffff168152602001600063ffffffff16815260200160608152602001606081525090565b604051806101000160405280600063ffffffff168152602001600063ffffffff168152602001600063ffffffff168152602001600063ffffffff168152602001600063ffffffff168152602001600063ffffffff16815260200160608152602001606081525090565b5b8082111561369c576000816000905550600101613684565b5090565b60006136b36136ae84614761565b61473c565b9050828152602081018484840111156136cb57600080fd5b6136d68482856149fe565b509392505050565b6000813590506136ed81615297565b92915050565b600081359050613702816152ae565b92915050565b600081359050613717816152c5565b92915050565b60008151905061372c816152c5565b92915050565b600082601f83011261374357600080fd5b81356137538482602086016136a0565b91505092915050565b60008135905061376b816152dc565b92915050565b600081359050613780816152f3565b92915050565b60006020828403121561379857600080fd5b60006137a6848285016136de565b91505092915050565b600080604083850312156137c257600080fd5b60006137d0858286016136de565b92505060206137e1858286016136de565b9150509250929050565b60008060006060848603121561380057600080fd5b600061380e868287016136de565b935050602061381f868287016136de565b92505060406138308682870161375c565b9150509250925092565b6000806000806080858703121561385057600080fd5b600061385e878288016136de565b945050602061386f878288016136de565b93505060406138808782880161375c565b925050606085013567ffffffffffffffff81111561389d57600080fd5b6138a987828801613732565b91505092959194509250565b600080604083850312156138c857600080fd5b60006138d6858286016136de565b92505060206138e7858286016136f3565b9150509250929050565b6000806040838503121561390457600080fd5b6000613912858286016136de565b92505060206139238582860161375c565b9150509250929050565b60006020828403121561393f57600080fd5b600061394d84828501613708565b91505092915050565b60006020828403121561396857600080fd5b60006139768482850161371d565b91505092915050565b60006020828403121561399157600080fd5b600061399f8482850161375c565b91505092915050565b6000602082840312156139ba57600080fd5b60006139c884828501613771565b91505092915050565b60006139dd8383613f3c565b905092915050565b6139ee81614968565b82525050565b60006139ff826147a2565b613a0981856147d0565b935083602082028501613a1b85614792565b8060005b85811015613a575784840389528151613a3885826139d1565b9450613a43836147c3565b925060208a01995050600181019050613a1f565b50829750879550505050505092915050565b613a728161497a565b82525050565b6000613a83826147ad565b613a8d81856147e1565b9350613a9d818560208601614a0d565b613aa681614bd9565b840191505092915050565b6000613abc826147b8565b613ac681856147f2565b9350613ad6818560208601614a0d565b613adf81614bd9565b840191505092915050565b6000613af5826147b8565b613aff8185614803565b9350613b0f818560208601614a0d565b613b1881614bd9565b840191505092915050565b6000613b2e826147b8565b613b388185614814565b9350613b48818560208601614a0d565b80840191505092915050565b6000613b61600b83614814565b9150613b6c82614bea565b600b82019050919050565b6000613b84603283614803565b9150613b8f82614c13565b604082019050919050565b6000613ba7601a83614803565b9150613bb282614c62565b602082019050919050565b6000613bca601c83614803565b9150613bd582614c8b565b602082019050919050565b6000613bed600e83614814565b9150613bf882614cb4565b600e82019050919050565b6000613c10602483614803565b9150613c1b82614cdd565b604082019050919050565b6000613c33601983614803565b9150613c3e82614d2c565b602082019050919050565b6000613c56602c83614803565b9150613c6182614d55565b604082019050919050565b6000613c79603883614803565b9150613c8482614da4565b604082019050919050565b6000613c9c602b83614803565b9150613ca782614df3565b604082019050919050565b6000613cbf602a83614803565b9150613cca82614e42565b604082019050919050565b6000613ce2602983614803565b9150613ced82614e91565b604082019050919050565b6000613d05603383614814565b9150613d1082614ee0565b603382019050919050565b6000613d28606283614814565b9150613d3382614f2f565b606282019050919050565b6000613d4b600483614814565b9150613d5682614fca565b600482019050919050565b6000613d6e602083614803565b9150613d7982614ff3565b602082019050919050565b6000613d91602c83614803565b9150613d9c8261501c565b604082019050919050565b6000613db4602983614803565b9150613dbf8261506b565b604082019050919050565b6000613dd7600a83614814565b9150613de2826150ba565b600a82019050919050565b6000613dfa602183614803565b9150613e05826150e3565b604082019050919050565b6000613e1d601d83614814565b9150613e2882615132565b601d82019050919050565b6000613e40603183614803565b9150613e4b8261515b565b604082019050919050565b6000613e63603d83614814565b9150613e6e826151aa565b603d82019050919050565b6000613e86602d83614814565b9150613e91826151f9565b602d82019050919050565b6000613ea9602783614814565b9150613eb482615248565b602782019050919050565b600060a083016000830151613ed760008601826140c8565b506020830151613eea60208601826140c8565b506040830151613efd60408601826140c8565b5060608301518482036060860152613f158282613ab1565b91505060808301518482036080860152613f2f8282613ab1565b9150508091505092915050565b600061010083016000830151613f5560008601826140c8565b506020830151613f6860208601826140c8565b506040830151613f7b60408601826140c8565b506060830151613f8e60608601826140c8565b506080830151613fa160808601826140c8565b5060a0830151613fb460a08601826140c8565b5060c083015184820360c0860152613fcc8282613ab1565b91505060e083015184820360e0860152613fe68282613ab1565b9150508091505092915050565b60006101008301600083015161400c60008601826140c8565b50602083015161401f60208601826140c8565b50604083015161403260408601826140c8565b50606083015161404560608601826140c8565b50608083015161405860808601826140c8565b5060a083015161406b60a08601826140c8565b5060c083015184820360c08601526140838282613ab1565b91505060e083015184820360e086015261409d8282613ab1565b9150508091505092915050565b6140b3816149d2565b82525050565b6140c2816149ec565b82525050565b6140d1816149dc565b82525050565b6140e0816149dc565b82525050565b60006140f182613dca565b91506140fd828b613b23565b915061410882613b54565b9150614114828a613b23565b915061411f82613d1b565b915061412b8289613b23565b915061413682613e56565b91506141428288613b23565b915061414d82613be0565b91506141598287613b23565b915061416482613e79565b91506141708286613b23565b915061417b82613cf8565b91506141878285613b23565b915061419282613e9c565b915061419e8284613b23565b91506141a982613d3e565b91508190509998505050505050505050565b60006141c682613e10565b91506141d28284613b23565b915081905092915050565b60006020820190506141f260008301846139e5565b92915050565b600060808201905061420d60008301876139e5565b61421a60208301866139e5565b61422760408301856140aa565b81810360608301526142398184613a78565b905095945050505050565b600060608201905061425960008301866139e5565b61426660208301856140aa565b61427360408301846140b9565b949350505050565b6000602082019050818103600083015261429581846139f4565b905092915050565b60006020820190506142b26000830184613a69565b92915050565b600060208201905081810360008301526142d28184613aea565b905092915050565b600060408201905081810360008301526142f48185613aea565b905081810360208301526143088184613aea565b90509392505050565b6000608082019050818103600083015261432b8187613aea565b9050818103602083015261433f8186613aea565b905061434e60408301856140aa565b61435b60608301846140aa565b95945050505050565b6000604082019050818103600083015261437e8185613aea565b905061438d60208301846140aa565b9392505050565b600060808201905081810360008301526143ae8187613aea565b90506143bd60208301866140aa565b6143ca60408301856140aa565b81810360608301526143dc8184613aea565b905095945050505050565b6000602082019050818103600083015261440081613b77565b9050919050565b6000602082019050818103600083015261442081613b9a565b9050919050565b6000602082019050818103600083015261444081613bbd565b9050919050565b6000602082019050818103600083015261446081613c03565b9050919050565b6000602082019050818103600083015261448081613c26565b9050919050565b600060208201905081810360008301526144a081613c49565b9050919050565b600060208201905081810360008301526144c081613c6c565b9050919050565b600060208201905081810360008301526144e081613c8f565b9050919050565b6000602082019050818103600083015261450081613cb2565b9050919050565b6000602082019050818103600083015261452081613cd5565b9050919050565b6000602082019050818103600083015261454081613d61565b9050919050565b6000602082019050818103600083015261456081613d84565b9050919050565b6000602082019050818103600083015261458081613da7565b9050919050565b600060208201905081810360008301526145a081613ded565b9050919050565b600060208201905081810360008301526145c081613e33565b9050919050565b600060208201905081810360008301526145e18184613ebf565b905092915050565b600060208201905081810360008301526146038184613ff3565b905092915050565b600060208201905061462060008301846140aa565b92915050565b600060408201905061463b60008301856140b9565b61464860208301846140b9565b9392505050565b600060a08201905061466460008301886140d7565b61467160208301876140d7565b61467e60408301866140d7565b81810360608301526146908185613aea565b905081810360808301526146a48184613aea565b90509695505050505050565b6000610100820190506146c6600083018b6140d7565b6146d3602083018a6140d7565b6146e060408301896140d7565b6146ed60608301886140d7565b6146fa60808301876140d7565b61470760a08301866140d7565b81810360c08301526147198185613aea565b905081810360e083015261472d8184613aea565b90509998505050505050505050565b6000614746614757565b90506147528282614a72565b919050565b6000604051905090565b600067ffffffffffffffff82111561477c5761477b614baa565b5b61478582614bd9565b9050602081019050919050565b6000819050602082019050919050565b600081519050919050565b600081519050919050565b600081519050919050565b6000602082019050919050565b600082825260208201905092915050565b600082825260208201905092915050565b600082825260208201905092915050565b600082825260208201905092915050565b600081905092915050565b600061482a826149d2565b9150614835836149d2565b9250827fffffffffffffffffffffffffffffffffffffffffffffffffffffffffffffffff0382111561486a57614869614b1d565b5b828201905092915050565b6000614880826149d2565b915061488b836149d2565b92508261489b5761489a614b4c565b5b828204905092915050565b60006148b1826149d2565b91506148bc836149d2565b9250817fffffffffffffffffffffffffffffffffffffffffffffffffffffffffffffffff04831182151516156148f5576148f4614b1d565b5b828202905092915050565b600061490b826149d2565b9150614916836149d2565b92508282101561492957614928614b1d565b5b828203905092915050565b600061493f826149dc565b915061494a836149dc565b92508282101561495d5761495c614b1d565b5b828203905092915050565b6000614973826149b2565b9050919050565b60008115159050919050565b60007fffffffff0000000000000000000000000000000000000000000000000000000082169050919050565b600073ffffffffffffffffffffffffffffffffffffffff82169050919050565b6000819050919050565b600063ffffffff82169050919050565b60006149f7826149dc565b9050919050565b82818337600083830152505050565b60005b83811015614a2b578082015181840152602081019050614a10565b83811115614a3a576000848401525b50505050565b60006002820490506001821680614a5857607f821691505b60208210811415614a6c57614a6b614b7b565b5b50919050565b614a7b82614bd9565b810181811067ffffffffffffffff82111715614a9a57614a99614baa565b5b80604052505050565b6000614aae826149d2565b91507fffffffffffffffffffffffffffffffffffffffffffffffffffffffffffffffff821415614ae157614ae0614b1d565b5b600182019050919050565b6000614af7826149d2565b9150614b02836149d2565b925082614b1257614b11614b4c565b5b828206905092915050565b7f4e487b7100000000000000000000000000000000000000000000000000000000600052601160045260246000fd5b7f4e487b7100000000000000000000000000000000000000000000000000000000600052601260045260246000fd5b7f4e487b7100000000000000000000000000000000000000000000000000000000600052602260045260246000fd5b7f4e487b7100000000000000000000000000000000000000000000000000000000600052604160045260246000fd5b6000601f19601f8301169050919050565b7f202d2d204e465420233a20000000000000000000000000000000000000000000600082015250565b7f4552433732313a207472616e7366657220746f206e6f6e20455243373231526560008201527f63656976657220696d706c656d656e7465720000000000000000000000000000602082015250565b7f42696720626f73732068702069732062656c6f77207a65726f21000000000000600082015250565b7f4552433732313a20746f6b656e20616c7265616479206d696e74656400000000600082015250565b7f2c20226d61785f76616c7565223a000000000000000000000000000000000000600082015250565b7f4552433732313a207472616e7366657220746f20746865207a65726f2061646460008201527f7265737300000000000000000000000000000000000000000000000000000000602082015250565b7f4552433732313a20617070726f766520746f2063616c6c657200000000000000600082015250565b7f4552433732313a206f70657261746f7220717565727920666f72206e6f6e657860008201527f697374656e7420746f6b656e0000000000000000000000000000000000000000602082015250565b7f4552433732313a20617070726f76652063616c6c6572206973206e6f74206f7760008201527f6e6572206e6f7220617070726f76656420666f7220616c6c0000000000000000602082015250565b7f436861726163746572204850206973206c657373207468616e206f722065717560008201527f616c20746f207a65726f21000000000000000000000000000000000000000000602082015250565b7f4552433732313a2062616c616e636520717565727920666f7220746865207a6560008201527f726f206164647265737300000000000000000000000000000000000000000000602082015250565b7f4552433732313a206f776e657220717565727920666f72206e6f6e657869737460008201527f656e7420746f6b656e0000000000000000000000000000000000000000000000602082015250565b7f7d2c207b202274726169745f74797065223a202253757065722041747461636b60008201527f2044616d616765222c202276616c7565223a2000000000000000000000000000602082015250565b7f222c20226465736372697074696f6e223a20225468697320697320616e204e4660008201527f542074686174206c6574732070656f706c6520706c617920696e20746865206760208201527f616d65204d657461766572736520536c6179657221222c2022696d616765223a60408201527f2022000000000000000000000000000000000000000000000000000000000000606082015250565b7f7d205d7d00000000000000000000000000000000000000000000000000000000600082015250565b7f4552433732313a206d696e7420746f20746865207a65726f2061646472657373600082015250565b7f4552433732313a20617070726f76656420717565727920666f72206e6f6e657860008201527f697374656e7420746f6b656e0000000000000000000000000000000000000000602082015250565b7f4552433732313a207472616e73666572206f6620746f6b656e2074686174206960008201527f73206e6f74206f776e0000000000000000000000000000000000000000000000602082015250565b7f7b226e616d65223a202200000000000000000000000000000000000000000000600082015250565b7f4552433732313a20617070726f76616c20746f2063757272656e74206f776e6560008201527f7200000000000000000000000000000000000000000000000000000000000000602082015250565b7f646174613a6170706c69636174696f6e2f6a736f6e3b6261736536342c000000600082015250565b7f4552433732313a207472616e736665722063616c6c6572206973206e6f74206f60008201527f776e6572206e6f7220617070726f766564000000000000000000000000000000602082015250565b7f222c202261747472696275746573223a205b207b202274726169745f7479706560008201527f223a20224865616c746820506f696e7473222c202276616c7565223a20000000602082015250565b7f7d2c207b202274726169745f74797065223a202241747461636b2044616d616760008201527f65222c202276616c7565223a2000000000000000000000000000000000000000602082015250565b7f7d2c207b202274726169745f74797065223a2022446566656e7365222c20227660008201527f616c7565223a2000000000000000000000000000000000000000000000000000602082015250565b6152a081614968565b81146152ab57600080fd5b50565b6152b78161497a565b81146152c257600080fd5b50565b6152ce81614986565b81146152d957600080fd5b50565b6152e5816149d2565b81146152f057600080fd5b50565b6152fc816149dc565b811461530757600080fd5b5056fe506c617965722061747461636b656420626f73732e204e657720626f73732068703a2025734142434445464748494a4b4c4d4e4f505152535455565758595a6162636465666768696a6b6c6d6e6f707172737475767778797a303132333435363738392b2f426f73732061747461636b656420706c617965722e204e657720706c617965722068703a2025730a426f73732061637475616c6c79206b696c6c656420796f752e20596f752063616e277420726576697665206e6f77214d696e746564204e465420772f20746f6b656e496420257320616e6420636861726163746572496e646578202573796f752068617665207375636365737366756c6c792064656665617465642074686520626f73730a506c6179657220772f206368617261637465722025732061626f757420746f2061747461636b2e2048617320257320485020616e64202573204144a264697066735822122010bd07f9fee6f66bb534ae0f57d57b4873c2cebf7725bad38e51c43dc5e9558864736f6c63430008040033",
  "linkReferences": {},
  "deployedLinkReferences": {}
}