{
  "_format": "hh-sol-artifact-1",
  "contractName": "GodOfWarBattle",
  "sourceName": "contracts/MyEpicGame.sol",
  "abi": [
    {
      "inputs": [
        {
          "internalType": "string[]",
          "name": "_names",
          "type": "string[]"
        },
        {
          "internalType": "string[]",
          "name": "_imageURI",
          "type": "string[]"
        },
        {
          "internalType": "uint32[]",
          "name": "_hp",
          "type": "uint32[]"
        },
        {
          "internalType": "uint32[]",
          "name": "_attackDamage",
          "type": "uint32[]"
        },
        {
          "internalType": "uint32[]",
          "name": "_superAttackDamage",
          "type": "uint32[]"
        },
        {
          "internalType": "uint32[]",
          "name": "_defense",
          "type": "uint32[]"
        },
        {
          "internalType": "string",
          "name": "bossName",
          "type": "string"
        },
        {
          "internalType": "string",
          "name": "bossImageURI",
          "type": "string"
        },
        {
          "internalType": "uint32",
          "name": "bossHp",
          "type": "uint32"
        },
        {
          "internalType": "uint32",
          "name": "bossAttackDamage",
          "type": "uint32"
        }
      ],
      "stateMutability": "nonpayable",
      "type": "constructor"
    },
    {
      "anonymous": false,
      "inputs": [
        {
          "indexed": true,
          "internalType": "address",
          "name": "owner",
          "type": "address"
        },
        {
          "indexed": true,
          "internalType": "address",
          "name": "approved",
          "type": "address"
        },
        {
          "indexed": true,
          "internalType": "uint256",
          "name": "tokenId",
          "type": "uint256"
        }
      ],
      "name": "Approval",
      "type": "event"
    },
    {
      "anonymous": false,
      "inputs": [
        {
          "indexed": true,
          "internalType": "address",
          "name": "owner",
          "type": "address"
        },
        {
          "indexed": true,
          "internalType": "address",
          "name": "operator",
          "type": "address"
        },
        {
          "indexed": false,
          "internalType": "bool",
          "name": "approved",
          "type": "bool"
        }
      ],
      "name": "ApprovalForAll",
      "type": "event"
    },
    {
      "anonymous": false,
      "inputs": [
        {
          "indexed": true,
          "internalType": "address",
          "name": "owner",
          "type": "address"
        },
        {
          "indexed": true,
          "internalType": "uint256",
          "name": "tokenIndex",
          "type": "uint256"
        }
      ],
      "name": "NewRareNFTMinted",
      "type": "event"
    },
    {
      "anonymous": false,
      "inputs": [
        {
          "indexed": true,
          "internalType": "address",
          "name": "from",
          "type": "address"
        },
        {
          "indexed": true,
          "internalType": "address",
          "name": "to",
          "type": "address"
        },
        {
          "indexed": true,
          "internalType": "uint256",
          "name": "tokenId",
          "type": "uint256"
        }
      ],
      "name": "Transfer",
      "type": "event"
    },
    {
      "inputs": [
        {
          "internalType": "address",
          "name": "to",
          "type": "address"
        },
        {
          "internalType": "uint256",
          "name": "tokenId",
          "type": "uint256"
        }
      ],
      "name": "approve",
      "outputs": [],
      "stateMutability": "nonpayable",
      "type": "function"
    },
    {
      "inputs": [],
      "name": "attackBoss",
      "outputs": [],
      "stateMutability": "nonpayable",
      "type": "function"
    },
    {
      "inputs": [
        {
          "internalType": "address",
          "name": "owner",
          "type": "address"
        }
      ],
      "name": "balanceOf",
      "outputs": [
        {
          "internalType": "uint256",
          "name": "",
          "type": "uint256"
        }
      ],
      "stateMutability": "view",
      "type": "function"
    },
    {
      "inputs": [],
      "name": "bigBoss",
      "outputs": [
        {
          "internalType": "uint32",
          "name": "hp",
          "type": "uint32"
        },
        {
          "internalType": "uint32",
          "name": "maxHp",
          "type": "uint32"
        },
        {
          "internalType": "uint32",
          "name": "attackDamage",
          "type": "uint32"
        },
        {
          "internalType": "string",
          "name": "name",
          "type": "string"
        },
        {
          "internalType": "string",
          "name": "imageURI",
          "type": "string"
        }
      ],
      "stateMutability": "view",
      "type": "function"
    },
    {
      "inputs": [
        {
          "internalType": "uint256",
          "name": "tokenId",
          "type": "uint256"
        }
      ],
      "name": "getApproved",
      "outputs": [
        {
          "internalType": "address",
          "name": "",
          "type": "address"
        }
      ],
      "stateMutability": "view",
      "type": "function"
    },
    {
      "inputs": [
        {
          "internalType": "address",
          "name": "owner",
          "type": "address"
        },
        {
          "internalType": "address",
          "name": "operator",
          "type": "address"
        }
      ],
      "name": "isApprovedForAll",
      "outputs": [
        {
          "internalType": "bool",
          "name": "",
          "type": "bool"
        }
      ],
      "stateMutability": "view",
      "type": "function"
    },
    {
      "inputs": [
        {
          "internalType": "uint32",
          "name": "_characterIndex",
          "type": "uint32"
        }
      ],
      "name": "mintCharacterNFT",
      "outputs": [],
      "stateMutability": "nonpayable",
      "type": "function"
    },
    {
      "inputs": [],
      "name": "name",
      "outputs": [
        {
          "internalType": "string",
          "name": "",
          "type": "string"
        }
      ],
      "stateMutability": "view",
      "type": "function"
    },
    {
      "inputs": [
        {
          "internalType": "address",
          "name": "",
          "type": "address"
        }
      ],
      "name": "nftHolders",
      "outputs": [
        {
          "internalType": "uint256",
          "name": "",
          "type": "uint256"
        }
      ],
      "stateMutability": "view",
      "type": "function"
    },
    {
      "inputs": [
        {
          "internalType": "uint256",
          "name": "",
          "type": "uint256"
        }
      ],
      "name": "nftHoldersAttributes",
      "outputs": [
        {
          "internalType": "uint32",
          "name": "hp",
          "type": "uint32"
        },
        {
          "internalType": "uint32",
          "name": "maxHp",
          "type": "uint32"
        },
        {
          "internalType": "uint32",
          "name": "characterIndex",
          "type": "uint32"
        },
        {
          "internalType": "uint32",
          "name": "attackDamage",
          "type": "uint32"
        },
        {
          "internalType": "uint32",
          "name": "superAttackDamage",
          "type": "uint32"
        },
        {
          "internalType": "uint32",
          "name": "defense",
          "type": "uint32"
        },
        {
          "internalType": "string",
          "name": "name",
          "type": "string"
        },
        {
          "internalType": "string",
          "name": "imageURI",
          "type": "string"
        }
      ],
      "stateMutability": "view",
      "type": "function"
    },
    {
      "inputs": [
        {
          "internalType": "uint256",
          "name": "tokenId",
          "type": "uint256"
        }
      ],
      "name": "ownerOf",
      "outputs": [
        {
          "internalType": "address",
          "name": "",
          "type": "address"
        }
      ],
      "stateMutability": "view",
      "type": "function"
    },
    {
      "inputs": [
        {
          "internalType": "address",
          "name": "from",
          "type": "address"
        },
        {
          "internalType": "address",
          "name": "to",
          "type": "address"
        },
        {
          "internalType": "uint256",
          "name": "tokenId",
          "type": "uint256"
        }
      ],
      "name": "safeTransferFrom",
      "outputs": [],
      "stateMutability": "nonpayable",
      "type": "function"
    },
    {
      "inputs": [
        {
          "internalType": "address",
          "name": "from",
          "type": "address"
        },
        {
          "internalType": "address",
          "name": "to",
          "type": "address"
        },
        {
          "internalType": "uint256",
          "name": "tokenId",
          "type": "uint256"
        },
        {
          "internalType": "bytes",
          "name": "_data",
          "type": "bytes"
        }
      ],
      "name": "safeTransferFrom",
      "outputs": [],
      "stateMutability": "nonpayable",
      "type": "function"
    },
    {
      "inputs": [
        {
          "internalType": "address",
          "name": "operator",
          "type": "address"
        },
        {
          "internalType": "bool",
          "name": "approved",
          "type": "bool"
        }
      ],
      "name": "setApprovalForAll",
      "outputs": [],
      "stateMutability": "nonpayable",
      "type": "function"
    },
    {
      "inputs": [
        {
          "internalType": "bytes4",
          "name": "interfaceId",
          "type": "bytes4"
        }
      ],
      "name": "supportsInterface",
      "outputs": [
        {
          "internalType": "bool",
          "name": "",
          "type": "bool"
        }
      ],
      "stateMutability": "view",
      "type": "function"
    },
    {
      "inputs": [],
      "name": "symbol",
      "outputs": [
        {
          "internalType": "string",
          "name": "",
          "type": "string"
        }
      ],
      "stateMutability": "view",
      "type": "function"
    },
    {
      "inputs": [
        {
          "internalType": "uint256",
          "name": "_tokenId",
          "type": "uint256"
        }
      ],
      "name": "tokenURI",
      "outputs": [
        {
          "internalType": "string",
          "name": "",
          "type": "string"
        }
      ],
      "stateMutability": "view",
      "type": "function"
    },
    {
      "inputs": [
        {
          "internalType": "address",
          "name": "from",
          "type": "address"
        },
        {
          "internalType": "address",
          "name": "to",
          "type": "address"
        },
        {
          "internalType": "uint256",
          "name": "tokenId",
          "type": "uint256"
        }
      ],
      "name": "transferFrom",
      "outputs": [],
      "stateMutability": "nonpayable",
      "type": "function"
    }
  ],
  "bytecode": "0x60806040523480156200001157600080fd5b506040516200580d3803806200580d833981810160405281019062000037919062000abb565b6040518060400160405280600e81526020017f476f644f66576172426174746c650000000000000000000000000000000000008152506040518060400160405280600481526020017f474f4442000000000000000000000000000000000000000000000000000000008152508160009080519060200190620000bb92919062000823565b508060019080519060200190620000d492919062000823565b5050506040518060a001604052808363ffffffff1681526020018363ffffffff1681526020018263ffffffff16815260200185815260200184815250600a60008201518160000160006101000a81548163ffffffff021916908363ffffffff16021790555060208201518160000160046101000a81548163ffffffff021916908363ffffffff16021790555060408201518160000160086101000a81548163ffffffff021916908363ffffffff1602179055506060820151816001019080519060200190620001a592919062000823565b506080820151816002019080519060200190620001c492919062000823565b50905050620002136040518060400160405280601381526020017f426967426f737320496e697469616c697a6564000000000000000000000000008152506200069b60201b62001c751760201c565b60005b8a518163ffffffff161015620006735760096040518061010001604052808b8463ffffffff168151811062000274577f4e487b7100000000000000000000000000000000000000000000000000000000600052603260045260246000fd5b602002602001015163ffffffff1681526020018b8463ffffffff1681518110620002c7577f4e487b7100000000000000000000000000000000000000000000000000000000600052603260045260246000fd5b602002602001015163ffffffff1681526020018363ffffffff1681526020018a8463ffffffff168151811062000326577f4e487b7100000000000000000000000000000000000000000000000000000000600052603260045260246000fd5b602002602001015163ffffffff168152602001898463ffffffff168151811062000379577f4e487b7100000000000000000000000000000000000000000000000000000000600052603260045260246000fd5b602002602001015163ffffffff168152602001888463ffffffff1681518110620003cc577f4e487b7100000000000000000000000000000000000000000000000000000000600052603260045260246000fd5b602002602001015163ffffffff1681526020018d8463ffffffff16815181106200041f577f4e487b7100000000000000000000000000000000000000000000000000000000600052603260045260246000fd5b602002602001015181526020018c8463ffffffff16815181106200046c577f4e487b7100000000000000000000000000000000000000000000000000000000600052603260045260246000fd5b6020026020010151815250908060018154018082558091505060019003906000526020600020906003020160009091909190915060008201518160000160006101000a81548163ffffffff021916908363ffffffff16021790555060208201518160000160046101000a81548163ffffffff021916908363ffffffff16021790555060408201518160000160086101000a81548163ffffffff021916908363ffffffff160217905550606082015181600001600c6101000a81548163ffffffff021916908363ffffffff16021790555060808201518160000160106101000a81548163ffffffff021916908363ffffffff16021790555060a08201518160000160146101000a81548163ffffffff021916908363ffffffff16021790555060c0820151816001019080519060200190620005a892919062000823565b5060e0820151816002019080519060200190620005c792919062000823565b5050506200065d6040518060400160405280601f81526020017f64656661756c744368617261637465727320496e697469616c697a65643a20008152508c8363ffffffff168151811062000644577f4e487b7100000000000000000000000000000000000000000000000000000000600052603260045260246000fd5b60200260200101516200073e60201b62001d0e1760201c565b80806200066a9062000e9e565b91505062000216565b506200068b6006620007e460201b62001daa1760201c565b5050505050505050505062000f88565b6200073b81604051602401620006b2919062000cb4565b6040516020818303038152906040527f41304fac000000000000000000000000000000000000000000000000000000007bffffffffffffffffffffffffffffffffffffffffffffffffffffffff19166020820180517bffffffffffffffffffffffffffffffffffffffffffffffffffffffff8381831617835250505050620007fa60201b60201c565b50565b620007e082826040516024016200075792919062000cd8565b6040516020818303038152906040527f4b5c4277000000000000000000000000000000000000000000000000000000007bffffffffffffffffffffffffffffffffffffffffffffffffffffffff19166020820180517bffffffffffffffffffffffffffffffffffffffffffffffffffffffff8381831617835250505050620007fa60201b60201c565b5050565b6001816000016000828254019250508190555050565b60008151905060006a636f6e736f6c652e6c6f679050602083016000808483855afa5050505050565b828054620008319062000e32565b90600052602060002090601f016020900481019282620008555760008555620008a1565b82601f106200087057805160ff1916838001178555620008a1565b82800160010185558215620008a1579182015b82811115620008a057825182559160200191906001019062000883565b5b509050620008b09190620008b4565b5090565b5b80821115620008cf576000816000905550600101620008b5565b5090565b6000620008ea620008e48462000d3c565b62000d13565b905080838252602082019050828560208602820111156200090a57600080fd5b60005b858110156200095957815167ffffffffffffffff8111156200092e57600080fd5b8086016200093d898262000a77565b855260208501945060208401935050506001810190506200090d565b5050509392505050565b60006200097a620009748462000d6b565b62000d13565b905080838252602082019050828560208602820111156200099a57600080fd5b60005b85811015620009ce5781620009b3888262000aa4565b8452602084019350602083019250506001810190506200099d565b5050509392505050565b6000620009ef620009e98462000d9a565b62000d13565b90508281526020810184848401111562000a0857600080fd5b62000a1584828562000dfc565b509392505050565b600082601f83011262000a2f57600080fd5b815162000a41848260208601620008d3565b91505092915050565b600082601f83011262000a5c57600080fd5b815162000a6e84826020860162000963565b91505092915050565b600082601f83011262000a8957600080fd5b815162000a9b848260208601620009d8565b91505092915050565b60008151905062000ab58162000f6e565b92915050565b6000806000806000806000806000806101408b8d03121562000adc57600080fd5b60008b015167ffffffffffffffff81111562000af757600080fd5b62000b058d828e0162000a1d565b9a505060208b015167ffffffffffffffff81111562000b2357600080fd5b62000b318d828e0162000a1d565b99505060408b015167ffffffffffffffff81111562000b4f57600080fd5b62000b5d8d828e0162000a4a565b98505060608b015167ffffffffffffffff81111562000b7b57600080fd5b62000b898d828e0162000a4a565b97505060808b015167ffffffffffffffff81111562000ba757600080fd5b62000bb58d828e0162000a4a565b96505060a08b015167ffffffffffffffff81111562000bd357600080fd5b62000be18d828e0162000a4a565b95505060c08b015167ffffffffffffffff81111562000bff57600080fd5b62000c0d8d828e0162000a77565b94505060e08b015167ffffffffffffffff81111562000c2b57600080fd5b62000c398d828e0162000a77565b93505061010062000c4d8d828e0162000aa4565b92505061012062000c618d828e0162000aa4565b9150509295989b9194979a5092959850565b600062000c808262000dd0565b62000c8c818562000ddb565b935062000c9e81856020860162000dfc565b62000ca98162000f5d565b840191505092915050565b6000602082019050818103600083015262000cd0818462000c73565b905092915050565b6000604082019050818103600083015262000cf4818562000c73565b9050818103602083015262000d0a818462000c73565b90509392505050565b600062000d1f62000d32565b905062000d2d828262000e68565b919050565b6000604051905090565b600067ffffffffffffffff82111562000d5a5762000d5962000f2e565b5b602082029050602081019050919050565b600067ffffffffffffffff82111562000d895762000d8862000f2e565b5b602082029050602081019050919050565b600067ffffffffffffffff82111562000db85762000db762000f2e565b5b62000dc38262000f5d565b9050602081019050919050565b600081519050919050565b600082825260208201905092915050565b600063ffffffff82169050919050565b60005b8381101562000e1c57808201518184015260208101905062000dff565b8381111562000e2c576000848401525b50505050565b6000600282049050600182168062000e4b57607f821691505b6020821081141562000e625762000e6162000eff565b5b50919050565b62000e738262000f5d565b810181811067ffffffffffffffff8211171562000e955762000e9462000f2e565b5b80604052505050565b600062000eab8262000dec565b915063ffffffff82141562000ec55762000ec462000ed0565b5b600182019050919050565b7f4e487b7100000000000000000000000000000000000000000000000000000000600052601160045260246000fd5b7f4e487b7100000000000000000000000000000000000000000000000000000000600052602260045260246000fd5b7f4e487b7100000000000000000000000000000000000000000000000000000000600052604160045260246000fd5b6000601f19601f8301169050919050565b62000f798162000dec565b811462000f8557600080fd5b50565b6148758062000f986000396000f3fe608060405234801561001057600080fd5b50600436106101165760003560e01c806370a08231116100a2578063a9c3267911610071578063a9c326791461030a578063b88d4fde1461032c578063c87b56dd14610348578063d4f24c5b14610378578063e985e9c51461038257610116565b806370a08231146102705780637df124a1146102a057806395d89b41146102d0578063a22cb465146102ee57610116565b806323b872dd116100e957806323b872dd146101b55780632910e22d146101d15780633ba9bf16146101ed57806342842e0e146102245780636352211e1461024057610116565b806301ffc9a71461011b57806306fdde031461014b578063081812fc14610169578063095ea7b314610199575b600080fd5b61013560048036038101906101309190613102565b6103b2565b604051610142919061374e565b60405180910390f35b610153610494565b6040516101609190613769565b60405180910390f35b610183600480360381019061017e9190613154565b610526565b60405161019091906136e7565b60405180910390f35b6101b360048036038101906101ae91906130c6565b6105ab565b005b6101cf60048036038101906101ca9190612fc0565b6106c3565b005b6101eb60048036038101906101e6919061317d565b610723565b005b61020760048036038101906102029190613154565b610dc8565b60405161021b989796959493929190613af4565b60405180910390f35b61023e60048036038101906102399190612fc0565b610f80565b005b61025a60048036038101906102559190613154565b610fa0565b60405161026791906136e7565b60405180910390f35b61028a60048036038101906102859190612f5b565b611052565b6040516102979190613a78565b60405180910390f35b6102ba60048036038101906102b59190612f5b565b61110a565b6040516102c79190613a78565b60405180910390f35b6102d8611122565b6040516102e59190613769565b60405180910390f35b6103086004803603810190610303919061308a565b6111b4565b005b6103126111ca565b604051610323959493929190613a93565b60405180910390f35b6103466004803603810190610341919061300f565b61132e565b005b610362600480360381019061035d9190613154565b611390565b60405161036f9190613769565b60405180910390f35b6103806116ae565b005b61039c60048036038101906103979190612f84565b611be1565b6040516103a9919061374e565b60405180910390f35b60007f80ac58cd000000000000000000000000000000000000000000000000000000007bffffffffffffffffffffffffffffffffffffffffffffffffffffffff1916827bffffffffffffffffffffffffffffffffffffffffffffffffffffffff1916148061047d57507f5b5e139f000000000000000000000000000000000000000000000000000000007bffffffffffffffffffffffffffffffffffffffffffffffffffffffff1916827bffffffffffffffffffffffffffffffffffffffffffffffffffffffff1916145b8061048d575061048c82611dc0565b5b9050919050565b6060600080546104a390613e28565b80601f01602080910402602001604051908101604052809291908181526020018280546104cf90613e28565b801561051c5780601f106104f15761010080835404028352916020019161051c565b820191906000526020600020905b8154815290600101906020018083116104ff57829003601f168201915b5050505050905090565b600061053182611e2a565b610570576040517f08c379a0000000000000000000000000000000000000000000000000000000008152600401610567906139f8565b60405180910390fd5b6004600083815260200190815260200160002060009054906101000a900473ffffffffffffffffffffffffffffffffffffffff169050919050565b60006105b682610fa0565b90508073ffffffffffffffffffffffffffffffffffffffff168373ffffffffffffffffffffffffffffffffffffffff161415610627576040517f08c379a000000000000000000000000000000000000000000000000000000000815260040161061e90613a38565b60405180910390fd5b8073ffffffffffffffffffffffffffffffffffffffff16610646611e96565b73ffffffffffffffffffffffffffffffffffffffff16148061067557506106748161066f611e96565b611be1565b5b6106b4576040517f08c379a00000000000000000000000000000000000000000000000000000000081526004016106ab90613958565b60405180910390fd5b6106be8383611e9e565b505050565b6106d46106ce611e96565b82611f57565b610713576040517f08c379a000000000000000000000000000000000000000000000000000000000815260040161070a90613a58565b60405180910390fd5b61071e838383612035565b505050565b600061072f6006612291565b905061073b338261229f565b60405180610100016040528060098463ffffffff1681548110610787577f4e487b7100000000000000000000000000000000000000000000000000000000600052603260045260246000fd5b906000526020600020906003020160000160009054906101000a900463ffffffff1663ffffffff16815260200160098463ffffffff16815481106107f4577f4e487b7100000000000000000000000000000000000000000000000000000000600052603260045260246000fd5b906000526020600020906003020160000160049054906101000a900463ffffffff1663ffffffff1681526020018363ffffffff16815260200160098463ffffffff168154811061086d577f4e487b7100000000000000000000000000000000000000000000000000000000600052603260045260246000fd5b9060005260206000209060030201600001600c9054906101000a900463ffffffff1663ffffffff16815260200160098463ffffffff16815481106108da577f4e487b7100000000000000000000000000000000000000000000000000000000600052603260045260246000fd5b906000526020600020906003020160000160109054906101000a900463ffffffff1663ffffffff16815260200160098463ffffffff1681548110610947577f4e487b7100000000000000000000000000000000000000000000000000000000600052603260045260246000fd5b906000526020600020906003020160000160149054906101000a900463ffffffff1663ffffffff16815260200160098463ffffffff16815481106109b4577f4e487b7100000000000000000000000000000000000000000000000000000000600052603260045260246000fd5b906000526020600020906003020160010180546109d090613e28565b80601f01602080910402602001604051908101604052809291908181526020018280546109fc90613e28565b8015610a495780601f10610a1e57610100808354040283529160200191610a49565b820191906000526020600020905b815481529060010190602001808311610a2c57829003601f168201915b5050505050815260200160098463ffffffff1681548110610a93577f4e487b7100000000000000000000000000000000000000000000000000000000600052603260045260246000fd5b90600052602060002090600302016002018054610aaf90613e28565b80601f0160208091040260200160405190810160405280929190818152602001828054610adb90613e28565b8015610b285780601f10610afd57610100808354040283529160200191610b28565b820191906000526020600020905b815481529060010190602001808311610b0b57829003601f168201915b50505050508152506008600083815260200190815260200160002060008201518160000160006101000a81548163ffffffff021916908363ffffffff16021790555060208201518160000160046101000a81548163ffffffff021916908363ffffffff16021790555060408201518160000160086101000a81548163ffffffff021916908363ffffffff160217905550606082015181600001600c6101000a81548163ffffffff021916908363ffffffff16021790555060808201518160000160106101000a81548163ffffffff021916908363ffffffff16021790555060a08201518160000160146101000a81548163ffffffff021916908363ffffffff16021790555060c0820151816001019080519060200190610c49929190612dd2565b5060e0820151816002019080519060200190610c66929190612dd2565b5090505080600760003373ffffffffffffffffffffffffffffffffffffffff1673ffffffffffffffffffffffffffffffffffffffff16815260200190815260200160002081905550803373ffffffffffffffffffffffffffffffffffffffff167f115800588b472877efdfb4e0d7ca273500ddb61c5f55e362db932032711a9d3160405160405180910390a3610dba6040518060600160405280602e81526020016147af602e9139828463ffffffff16600860008681526020019081526020016000206002018054610d3790613e28565b80601f0160208091040260200160405190810160405280929190818152602001828054610d6390613e28565b8015610db05780601f10610d8557610100808354040283529160200191610db0565b820191906000526020600020905b815481529060010190602001808311610d9357829003601f168201915b50505050506122bd565b610dc46006611daa565b5050565b60086020528060005260406000206000915090508060000160009054906101000a900463ffffffff16908060000160049054906101000a900463ffffffff16908060000160089054906101000a900463ffffffff169080600001600c9054906101000a900463ffffffff16908060000160109054906101000a900463ffffffff16908060000160149054906101000a900463ffffffff1690806001018054610e6f90613e28565b80601f0160208091040260200160405190810160405280929190818152602001828054610e9b90613e28565b8015610ee85780601f10610ebd57610100808354040283529160200191610ee8565b820191906000526020600020905b815481529060010190602001808311610ecb57829003601f168201915b505050505090806002018054610efd90613e28565b80601f0160208091040260200160405190810160405280929190818152602001828054610f2990613e28565b8015610f765780601f10610f4b57610100808354040283529160200191610f76565b820191906000526020600020905b815481529060010190602001808311610f5957829003601f168201915b5050505050905088565b610f9b8383836040518060200160405280600081525061132e565b505050565b6000806002600084815260200190815260200160002060009054906101000a900473ffffffffffffffffffffffffffffffffffffffff169050600073ffffffffffffffffffffffffffffffffffffffff168173ffffffffffffffffffffffffffffffffffffffff161415611049576040517f08c379a0000000000000000000000000000000000000000000000000000000008152600401611040906139b8565b60405180910390fd5b80915050919050565b60008073ffffffffffffffffffffffffffffffffffffffff168273ffffffffffffffffffffffffffffffffffffffff1614156110c3576040517f08c379a00000000000000000000000000000000000000000000000000000000081526004016110ba90613998565b60405180910390fd5b600360008373ffffffffffffffffffffffffffffffffffffffff1673ffffffffffffffffffffffffffffffffffffffff168152602001908152602001600020549050919050565b60076020528060005260406000206000915090505481565b60606001805461113190613e28565b80601f016020809104026020016040519081016040528092919081815260200182805461115d90613e28565b80156111aa5780601f1061117f576101008083540402835291602001916111aa565b820191906000526020600020905b81548152906001019060200180831161118d57829003601f168201915b5050505050905090565b6111c66111bf611e96565b838361235f565b5050565b600a8060000160009054906101000a900463ffffffff16908060000160049054906101000a900463ffffffff16908060000160089054906101000a900463ffffffff169080600101805461121d90613e28565b80601f016020809104026020016040519081016040528092919081815260200182805461124990613e28565b80156112965780601f1061126b57610100808354040283529160200191611296565b820191906000526020600020905b81548152906001019060200180831161127957829003601f168201915b5050505050908060020180546112ab90613e28565b80601f01602080910402602001604051908101604052809291908181526020018280546112d790613e28565b80156113245780601f106112f957610100808354040283529160200191611324565b820191906000526020600020905b81548152906001019060200180831161130757829003601f168201915b5050505050905085565b61133f611339611e96565b83611f57565b61137e576040517f08c379a000000000000000000000000000000000000000000000000000000000815260040161137590613a58565b60405180910390fd5b61138a848484846124cc565b50505050565b6060600060086000848152602001908152602001600020604051806101000160405290816000820160009054906101000a900463ffffffff1663ffffffff1663ffffffff1681526020016000820160049054906101000a900463ffffffff1663ffffffff1663ffffffff1681526020016000820160089054906101000a900463ffffffff1663ffffffff1663ffffffff16815260200160008201600c9054906101000a900463ffffffff1663ffffffff1663ffffffff1681526020016000820160109054906101000a900463ffffffff1663ffffffff1663ffffffff1681526020016000820160149054906101000a900463ffffffff1663ffffffff1663ffffffff1681526020016001820180546114a790613e28565b80601f01602080910402602001604051908101604052809291908181526020018280546114d390613e28565b80156115205780601f106114f557610100808354040283529160200191611520565b820191906000526020600020905b81548152906001019060200180831161150357829003601f168201915b5050505050815260200160028201805461153990613e28565b80601f016020809104026020016040519081016040528092919081815260200182805461156590613e28565b80156115b25780601f10611587576101008083540402835291602001916115b2565b820191906000526020600020905b81548152906001019060200180831161159557829003601f168201915b505050505081525050905060006115d2826000015163ffffffff16612528565b905060006115e9836020015163ffffffff16612528565b90506000611600846060015163ffffffff16612528565b90506000611617856080015163ffffffff16612528565b9050600061162e8660a0015163ffffffff16612528565b905060006116788760c001516116438b612528565b8960e0015189898989896040516020016116649897969594939291906135f0565b6040516020818303038152906040526126d5565b905060008160405160200161168d91906136c5565b60405160208183030381529060405290508098505050505050505050919050565b6000600a60000160009054906101000a900463ffffffff1663ffffffff161161170c576040517f08c379a0000000000000000000000000000000000000000000000000000000008152600401611703906138b8565b60405180910390fd5b600060086000600760003373ffffffffffffffffffffffffffffffffffffffff1673ffffffffffffffffffffffffffffffffffffffff168152602001908152602001600020548152602001908152602001600020905060008160000160009054906101000a900463ffffffff1663ffffffff16116117bf576040517f08c379a00000000000000000000000000000000000000000000000000000000081526004016117b690613978565b60405180910390fd5b6118a36040518060600160405280603c8152602001614804603c91398260010180546117ea90613e28565b80601f016020809104026020016040519081016040528092919081815260200182805461181690613e28565b80156118635780601f1061183857610100808354040283529160200191611863565b820191906000526020600020905b81548152906001019060200180831161184657829003601f168201915b50505050508360000160009054906101000a900463ffffffff1663ffffffff1684600001600c9054906101000a900463ffffffff1663ffffffff16612893565b6119a76040518060400160405280601b81526020017f426f73732025732068617320257320485020616e642025732041440000000000815250600a60010180546118ec90613e28565b80601f016020809104026020016040519081016040528092919081815260200182805461191890613e28565b80156119655780601f1061193a57610100808354040283529160200191611965565b820191906000526020600020905b81548152906001019060200180831161194857829003601f168201915b5050505050600a60000160009054906101000a900463ffffffff1663ffffffff16600a60000160089054906101000a900463ffffffff1663ffffffff16612893565b80600001600c9054906101000a900463ffffffff1663ffffffff16600a60000160009054906101000a900463ffffffff1663ffffffff161015611a2f576000600a60000160006101000a81548163ffffffff021916908363ffffffff160217905550611a2a6040518060600160405280602781526020016147dd60279139611c75565b611a86565b80600001600c9054906101000a900463ffffffff16600a60000160008282829054906101000a900463ffffffff16611a679190613d2e565b92506101000a81548163ffffffff021916908363ffffffff1602179055505b600a60000160089054906101000a900463ffffffff1663ffffffff168160000160009054906101000a900463ffffffff1663ffffffff161015611b0d5760008160000160006101000a81548163ffffffff021916908363ffffffff160217905550611b086040518060600160405280602f8152602001614780602f9139611c75565b611b65565b600a60000160089054906101000a900463ffffffff168160000160009054906101000a900463ffffffff16611b429190613d2e565b8160000160006101000a81548163ffffffff021916908363ffffffff1602179055505b611ba26040518060600160405280602581526020016146f360259139600a60000160009054906101000a900463ffffffff1663ffffffff16612935565b611bde604051806060016040528060288152602001614758602891398260000160009054906101000a900463ffffffff1663ffffffff16612935565b50565b6000600560008473ffffffffffffffffffffffffffffffffffffffff1673ffffffffffffffffffffffffffffffffffffffff16815260200190815260200160002060008373ffffffffffffffffffffffffffffffffffffffff1673ffffffffffffffffffffffffffffffffffffffff16815260200190815260200160002060009054906101000a900460ff16905092915050565b611d0b81604051602401611c899190613769565b6040516020818303038152906040527f41304fac000000000000000000000000000000000000000000000000000000007bffffffffffffffffffffffffffffffffffffffffffffffffffffffff19166020820180517bffffffffffffffffffffffffffffffffffffffffffffffffffffffff83818316178352505050506129d1565b50565b611da68282604051602401611d2492919061378b565b6040516020818303038152906040527f4b5c4277000000000000000000000000000000000000000000000000000000007bffffffffffffffffffffffffffffffffffffffffffffffffffffffff19166020820180517bffffffffffffffffffffffffffffffffffffffffffffffffffffffff83818316178352505050506129d1565b5050565b6001816000016000828254019250508190555050565b60007f01ffc9a7000000000000000000000000000000000000000000000000000000007bffffffffffffffffffffffffffffffffffffffffffffffffffffffff1916827bffffffffffffffffffffffffffffffffffffffffffffffffffffffff1916149050919050565b60008073ffffffffffffffffffffffffffffffffffffffff166002600084815260200190815260200160002060009054906101000a900473ffffffffffffffffffffffffffffffffffffffff1673ffffffffffffffffffffffffffffffffffffffff1614159050919050565b600033905090565b816004600083815260200190815260200160002060006101000a81548173ffffffffffffffffffffffffffffffffffffffff021916908373ffffffffffffffffffffffffffffffffffffffff160217905550808273ffffffffffffffffffffffffffffffffffffffff16611f1183610fa0565b73ffffffffffffffffffffffffffffffffffffffff167f8c5be1e5ebec7d5bd14f71427d1e84f3dd0314c0f7b2291e5b200ac8c7c3b92560405160405180910390a45050565b6000611f6282611e2a565b611fa1576040517f08c379a0000000000000000000000000000000000000000000000000000000008152600401611f9890613938565b60405180910390fd5b6000611fac83610fa0565b90508073ffffffffffffffffffffffffffffffffffffffff168473ffffffffffffffffffffffffffffffffffffffff16148061201b57508373ffffffffffffffffffffffffffffffffffffffff1661200384610526565b73ffffffffffffffffffffffffffffffffffffffff16145b8061202c575061202b8185611be1565b5b91505092915050565b8273ffffffffffffffffffffffffffffffffffffffff1661205582610fa0565b73ffffffffffffffffffffffffffffffffffffffff16146120ab576040517f08c379a00000000000000000000000000000000000000000000000000000000081526004016120a290613a18565b60405180910390fd5b600073ffffffffffffffffffffffffffffffffffffffff168273ffffffffffffffffffffffffffffffffffffffff16141561211b576040517f08c379a0000000000000000000000000000000000000000000000000000000008152600401612112906138f8565b60405180910390fd5b6121268383836129fa565b612131600082611e9e565b6001600360008573ffffffffffffffffffffffffffffffffffffffff1673ffffffffffffffffffffffffffffffffffffffff16815260200190815260200160002060008282546121819190613cfa565b925050819055506001600360008473ffffffffffffffffffffffffffffffffffffffff1673ffffffffffffffffffffffffffffffffffffffff16815260200190815260200160002060008282546121d89190613c19565b92505081905550816002600083815260200190815260200160002060006101000a81548173ffffffffffffffffffffffffffffffffffffffff021916908373ffffffffffffffffffffffffffffffffffffffff160217905550808273ffffffffffffffffffffffffffffffffffffffff168473ffffffffffffffffffffffffffffffffffffffff167fddf252ad1be2c89b69c2b068fc378daa952ba7f163c4a11628f55a4df523b3ef60405160405180910390a4505050565b600081600001549050919050565b6122b98282604051806020016040528060008152506129ff565b5050565b612359848484846040516024016122d79493929190613845565b6040516020818303038152906040527fa54ed4bd000000000000000000000000000000000000000000000000000000007bffffffffffffffffffffffffffffffffffffffffffffffffffffffff19166020820180517bffffffffffffffffffffffffffffffffffffffffffffffffffffffff83818316178352505050506129d1565b50505050565b8173ffffffffffffffffffffffffffffffffffffffff168373ffffffffffffffffffffffffffffffffffffffff1614156123ce576040517f08c379a00000000000000000000000000000000000000000000000000000000081526004016123c590613918565b60405180910390fd5b80600560008573ffffffffffffffffffffffffffffffffffffffff1673ffffffffffffffffffffffffffffffffffffffff16815260200190815260200160002060008473ffffffffffffffffffffffffffffffffffffffff1673ffffffffffffffffffffffffffffffffffffffff16815260200190815260200160002060006101000a81548160ff0219169083151502179055508173ffffffffffffffffffffffffffffffffffffffff168373ffffffffffffffffffffffffffffffffffffffff167f17307eab39ab6107e8899845ad3d59bd9653f200f220920489ca2b5937696c31836040516124bf919061374e565b60405180910390a3505050565b6124d7848484612035565b6124e384848484612a5a565b612522576040517f08c379a000000000000000000000000000000000000000000000000000000000815260040161251990613898565b60405180910390fd5b50505050565b60606000821415612570576040518060400160405280600181526020017f300000000000000000000000000000000000000000000000000000000000000081525090506126d0565b600082905060005b600082146125a257808061258b90613e8b565b915050600a8261259b9190613c6f565b9150612578565b60008167ffffffffffffffff8111156125e4577f4e487b7100000000000000000000000000000000000000000000000000000000600052604160045260246000fd5b6040519080825280601f01601f1916602001820160405280156126165781602001600182028036833780820191505090505b5090505b600085146126c95760018261262f9190613cfa565b9150600a8561263e9190613ed4565b603061264a9190613c19565b60f81b818381518110612686577f4e487b7100000000000000000000000000000000000000000000000000000000600052603260045260246000fd5b60200101907effffffffffffffffffffffffffffffffffffffffffffffffffffffffffffff1916908160001a905350600a856126c29190613c6f565b945061261a565b8093505050505b919050565b606060008251905060008114156126fe576040518060200160405280600081525091505061288e565b6000600360028361270f9190613c19565b6127199190613c6f565b60046127259190613ca0565b905060006020826127369190613c19565b67ffffffffffffffff811115612775577f4e487b7100000000000000000000000000000000000000000000000000000000600052604160045260246000fd5b6040519080825280601f01601f1916602001820160405280156127a75781602001600182028036833780820191505090505b5090506000604051806060016040528060408152602001614718604091399050600181016020830160005b8681101561284b5760038101905062ffffff818a015116603f8160121c168401518060081b905060ff603f83600c1c1686015116810190508060081b905060ff603f8360061c1686015116810190508060081b905060ff603f831686015116810190508060e01b905080845260048401935050506127d2565b506003860660018114612865576002811461287557612880565b613d3d60f01b6002830352612880565b603d60f81b60018303525b508484525050819450505050505b919050565b61292f848484846040516024016128ad94939291906137c2565b6040516020818303038152906040527fd5cf17d0000000000000000000000000000000000000000000000000000000007bffffffffffffffffffffffffffffffffffffffffffffffffffffffff19166020820180517bffffffffffffffffffffffffffffffffffffffffffffffffffffffff83818316178352505050506129d1565b50505050565b6129cd828260405160240161294b929190613815565b6040516020818303038152906040527f9710a9d0000000000000000000000000000000000000000000000000000000007bffffffffffffffffffffffffffffffffffffffffffffffffffffffff19166020820180517bffffffffffffffffffffffffffffffffffffffffffffffffffffffff83818316178352505050506129d1565b5050565b60008151905060006a636f6e736f6c652e6c6f679050602083016000808483855afa5050505050565b505050565b612a098383612bf1565b612a166000848484612a5a565b612a55576040517f08c379a0000000000000000000000000000000000000000000000000000000008152600401612a4c90613898565b60405180910390fd5b505050565b6000612a7b8473ffffffffffffffffffffffffffffffffffffffff16612dbf565b15612be4578373ffffffffffffffffffffffffffffffffffffffff1663150b7a02612aa4611e96565b8786866040518563ffffffff1660e01b8152600401612ac69493929190613702565b602060405180830381600087803b158015612ae057600080fd5b505af1925050508015612b1157506040513d601f19601f82011682018060405250810190612b0e919061312b565b60015b612b94573d8060008114612b41576040519150601f19603f3d011682016040523d82523d6000602084013e612b46565b606091505b50600081511415612b8c576040517f08c379a0000000000000000000000000000000000000000000000000000000008152600401612b8390613898565b60405180910390fd5b805181602001fd5b63150b7a0260e01b7bffffffffffffffffffffffffffffffffffffffffffffffffffffffff1916817bffffffffffffffffffffffffffffffffffffffffffffffffffffffff191614915050612be9565b600190505b949350505050565b600073ffffffffffffffffffffffffffffffffffffffff168273ffffffffffffffffffffffffffffffffffffffff161415612c61576040517f08c379a0000000000000000000000000000000000000000000000000000000008152600401612c58906139d8565b60405180910390fd5b612c6a81611e2a565b15612caa576040517f08c379a0000000000000000000000000000000000000000000000000000000008152600401612ca1906138d8565b60405180910390fd5b612cb6600083836129fa565b6001600360008473ffffffffffffffffffffffffffffffffffffffff1673ffffffffffffffffffffffffffffffffffffffff1681526020019081526020016000206000828254612d069190613c19565b92505081905550816002600083815260200190815260200160002060006101000a81548173ffffffffffffffffffffffffffffffffffffffff021916908373ffffffffffffffffffffffffffffffffffffffff160217905550808273ffffffffffffffffffffffffffffffffffffffff16600073ffffffffffffffffffffffffffffffffffffffff167fddf252ad1be2c89b69c2b068fc378daa952ba7f163c4a11628f55a4df523b3ef60405160405180910390a45050565b600080823b905060008111915050919050565b828054612dde90613e28565b90600052602060002090601f016020900481019282612e005760008555612e47565b82601f10612e1957805160ff1916838001178555612e47565b82800160010185558215612e47579182015b82811115612e46578251825591602001919060010190612e2b565b5b509050612e549190612e58565b5090565b5b80821115612e71576000816000905550600101612e59565b5090565b6000612e88612e8384613ba5565b613b80565b905082815260208101848484011115612ea057600080fd5b612eab848285613de6565b509392505050565b600081359050612ec28161467f565b92915050565b600081359050612ed781614696565b92915050565b600081359050612eec816146ad565b92915050565b600081519050612f01816146ad565b92915050565b600082601f830112612f1857600080fd5b8135612f28848260208601612e75565b91505092915050565b600081359050612f40816146c4565b92915050565b600081359050612f55816146db565b92915050565b600060208284031215612f6d57600080fd5b6000612f7b84828501612eb3565b91505092915050565b60008060408385031215612f9757600080fd5b6000612fa585828601612eb3565b9250506020612fb685828601612eb3565b9150509250929050565b600080600060608486031215612fd557600080fd5b6000612fe386828701612eb3565b9350506020612ff486828701612eb3565b925050604061300586828701612f31565b9150509250925092565b6000806000806080858703121561302557600080fd5b600061303387828801612eb3565b945050602061304487828801612eb3565b935050604061305587828801612f31565b925050606085013567ffffffffffffffff81111561307257600080fd5b61307e87828801612f07565b91505092959194509250565b6000806040838503121561309d57600080fd5b60006130ab85828601612eb3565b92505060206130bc85828601612ec8565b9150509250929050565b600080604083850312156130d957600080fd5b60006130e785828601612eb3565b92505060206130f885828601612f31565b9150509250929050565b60006020828403121561311457600080fd5b600061312284828501612edd565b91505092915050565b60006020828403121561313d57600080fd5b600061314b84828501612ef2565b91505092915050565b60006020828403121561316657600080fd5b600061317484828501612f31565b91505092915050565b60006020828403121561318f57600080fd5b600061319d84828501612f46565b91505092915050565b6131af81613d62565b82525050565b6131be81613d74565b82525050565b60006131cf82613bd6565b6131d98185613bec565b93506131e9818560208601613df5565b6131f281613fc1565b840191505092915050565b600061320882613be1565b6132128185613bfd565b9350613222818560208601613df5565b61322b81613fc1565b840191505092915050565b600061324182613be1565b61324b8185613c0e565b935061325b818560208601613df5565b80840191505092915050565b6000613274600b83613c0e565b915061327f82613fd2565b600b82019050919050565b6000613297603283613bfd565b91506132a282613ffb565b604082019050919050565b60006132ba601a83613bfd565b91506132c58261404a565b602082019050919050565b60006132dd601c83613bfd565b91506132e882614073565b602082019050919050565b6000613300600e83613c0e565b915061330b8261409c565b600e82019050919050565b6000613323602483613bfd565b915061332e826140c5565b604082019050919050565b6000613346601983613bfd565b915061335182614114565b602082019050919050565b6000613369602c83613bfd565b91506133748261413d565b604082019050919050565b600061338c603883613bfd565b91506133978261418c565b604082019050919050565b60006133af602b83613bfd565b91506133ba826141db565b604082019050919050565b60006133d2602a83613bfd565b91506133dd8261422a565b604082019050919050565b60006133f5602983613bfd565b915061340082614279565b604082019050919050565b6000613418603383613c0e565b9150613423826142c8565b603382019050919050565b600061343b606283613c0e565b915061344682614317565b606282019050919050565b600061345e600483613c0e565b9150613469826143b2565b600482019050919050565b6000613481602083613bfd565b915061348c826143db565b602082019050919050565b60006134a4602c83613bfd565b91506134af82614404565b604082019050919050565b60006134c7602983613bfd565b91506134d282614453565b604082019050919050565b60006134ea600a83613c0e565b91506134f5826144a2565b600a82019050919050565b600061350d602183613bfd565b9150613518826144cb565b604082019050919050565b6000613530601d83613c0e565b915061353b8261451a565b601d82019050919050565b6000613553603183613bfd565b915061355e82614543565b604082019050919050565b6000613576603d83613c0e565b915061358182614592565b603d82019050919050565b6000613599602d83613c0e565b91506135a4826145e1565b602d82019050919050565b60006135bc602783613c0e565b91506135c782614630565b602782019050919050565b6135db81613dcc565b82525050565b6135ea81613dd6565b82525050565b60006135fb826134dd565b9150613607828b613236565b915061361282613267565b915061361e828a613236565b91506136298261342e565b91506136358289613236565b915061364082613569565b915061364c8288613236565b9150613657826132f3565b91506136638287613236565b915061366e8261358c565b915061367a8286613236565b91506136858261340b565b91506136918285613236565b915061369c826135af565b91506136a88284613236565b91506136b382613451565b91508190509998505050505050505050565b60006136d082613523565b91506136dc8284613236565b915081905092915050565b60006020820190506136fc60008301846131a6565b92915050565b600060808201905061371760008301876131a6565b61372460208301866131a6565b61373160408301856135d2565b818103606083015261374381846131c4565b905095945050505050565b600060208201905061376360008301846131b5565b92915050565b6000602082019050818103600083015261378381846131fd565b905092915050565b600060408201905081810360008301526137a581856131fd565b905081810360208301526137b981846131fd565b90509392505050565b600060808201905081810360008301526137dc81876131fd565b905081810360208301526137f081866131fd565b90506137ff60408301856135d2565b61380c60608301846135d2565b95945050505050565b6000604082019050818103600083015261382f81856131fd565b905061383e60208301846135d2565b9392505050565b6000608082019050818103600083015261385f81876131fd565b905061386e60208301866135d2565b61387b60408301856135d2565b818103606083015261388d81846131fd565b905095945050505050565b600060208201905081810360008301526138b18161328a565b9050919050565b600060208201905081810360008301526138d1816132ad565b9050919050565b600060208201905081810360008301526138f1816132d0565b9050919050565b6000602082019050818103600083015261391181613316565b9050919050565b6000602082019050818103600083015261393181613339565b9050919050565b600060208201905081810360008301526139518161335c565b9050919050565b600060208201905081810360008301526139718161337f565b9050919050565b60006020820190508181036000830152613991816133a2565b9050919050565b600060208201905081810360008301526139b1816133c5565b9050919050565b600060208201905081810360008301526139d1816133e8565b9050919050565b600060208201905081810360008301526139f181613474565b9050919050565b60006020820190508181036000830152613a1181613497565b9050919050565b60006020820190508181036000830152613a31816134ba565b9050919050565b60006020820190508181036000830152613a5181613500565b9050919050565b60006020820190508181036000830152613a7181613546565b9050919050565b6000602082019050613a8d60008301846135d2565b92915050565b600060a082019050613aa860008301886135e1565b613ab560208301876135e1565b613ac260408301866135e1565b8181036060830152613ad481856131fd565b90508181036080830152613ae881846131fd565b90509695505050505050565b600061010082019050613b0a600083018b6135e1565b613b17602083018a6135e1565b613b2460408301896135e1565b613b3160608301886135e1565b613b3e60808301876135e1565b613b4b60a08301866135e1565b81810360c0830152613b5d81856131fd565b905081810360e0830152613b7181846131fd565b90509998505050505050505050565b6000613b8a613b9b565b9050613b968282613e5a565b919050565b6000604051905090565b600067ffffffffffffffff821115613bc057613bbf613f92565b5b613bc982613fc1565b9050602081019050919050565b600081519050919050565b600081519050919050565b600082825260208201905092915050565b600082825260208201905092915050565b600081905092915050565b6000613c2482613dcc565b9150613c2f83613dcc565b9250827fffffffffffffffffffffffffffffffffffffffffffffffffffffffffffffffff03821115613c6457613c63613f05565b5b828201905092915050565b6000613c7a82613dcc565b9150613c8583613dcc565b925082613c9557613c94613f34565b5b828204905092915050565b6000613cab82613dcc565b9150613cb683613dcc565b9250817fffffffffffffffffffffffffffffffffffffffffffffffffffffffffffffffff0483118215151615613cef57613cee613f05565b5b828202905092915050565b6000613d0582613dcc565b9150613d1083613dcc565b925082821015613d2357613d22613f05565b5b828203905092915050565b6000613d3982613dd6565b9150613d4483613dd6565b925082821015613d5757613d56613f05565b5b828203905092915050565b6000613d6d82613dac565b9050919050565b60008115159050919050565b60007fffffffff0000000000000000000000000000000000000000000000000000000082169050919050565b600073ffffffffffffffffffffffffffffffffffffffff82169050919050565b6000819050919050565b600063ffffffff82169050919050565b82818337600083830152505050565b60005b83811015613e13578082015181840152602081019050613df8565b83811115613e22576000848401525b50505050565b60006002820490506001821680613e4057607f821691505b60208210811415613e5457613e53613f63565b5b50919050565b613e6382613fc1565b810181811067ffffffffffffffff82111715613e8257613e81613f92565b5b80604052505050565b6000613e9682613dcc565b91507fffffffffffffffffffffffffffffffffffffffffffffffffffffffffffffffff821415613ec957613ec8613f05565b5b600182019050919050565b6000613edf82613dcc565b9150613eea83613dcc565b925082613efa57613ef9613f34565b5b828206905092915050565b7f4e487b7100000000000000000000000000000000000000000000000000000000600052601160045260246000fd5b7f4e487b7100000000000000000000000000000000000000000000000000000000600052601260045260246000fd5b7f4e487b7100000000000000000000000000000000000000000000000000000000600052602260045260246000fd5b7f4e487b7100000000000000000000000000000000000000000000000000000000600052604160045260246000fd5b6000601f19601f8301169050919050565b7f202d2d204e465420233a20000000000000000000000000000000000000000000600082015250565b7f4552433732313a207472616e7366657220746f206e6f6e20455243373231526560008201527f63656976657220696d706c656d656e7465720000000000000000000000000000602082015250565b7f42696720626f73732068702069732062656c6f77207a65726f21000000000000600082015250565b7f4552433732313a20746f6b656e20616c7265616479206d696e74656400000000600082015250565b7f2c20226d61785f76616c7565223a000000000000000000000000000000000000600082015250565b7f4552433732313a207472616e7366657220746f20746865207a65726f2061646460008201527f7265737300000000000000000000000000000000000000000000000000000000602082015250565b7f4552433732313a20617070726f766520746f2063616c6c657200000000000000600082015250565b7f4552433732313a206f70657261746f7220717565727920666f72206e6f6e657860008201527f697374656e7420746f6b656e0000000000000000000000000000000000000000602082015250565b7f4552433732313a20617070726f76652063616c6c6572206973206e6f74206f7760008201527f6e6572206e6f7220617070726f76656420666f7220616c6c0000000000000000602082015250565b7f436861726163746572204850206973206c657373207468616e206f722065717560008201527f616c20746f207a65726f21000000000000000000000000000000000000000000602082015250565b7f4552433732313a2062616c616e636520717565727920666f7220746865207a6560008201527f726f206164647265737300000000000000000000000000000000000000000000602082015250565b7f4552433732313a206f776e657220717565727920666f72206e6f6e657869737460008201527f656e7420746f6b656e0000000000000000000000000000000000000000000000602082015250565b7f7d2c207b202274726169745f74797065223a202253757065722041747461636b60008201527f2044616d616765222c202276616c7565223a2000000000000000000000000000602082015250565b7f222c20226465736372697074696f6e223a20225468697320697320616e204e4660008201527f542074686174206c6574732070656f706c6520706c617920696e20746865206760208201527f616d65204d657461766572736520536c6179657221222c2022696d616765223a60408201527f2022000000000000000000000000000000000000000000000000000000000000606082015250565b7f7d205d7d00000000000000000000000000000000000000000000000000000000600082015250565b7f4552433732313a206d696e7420746f20746865207a65726f2061646472657373600082015250565b7f4552433732313a20617070726f76656420717565727920666f72206e6f6e657860008201527f697374656e7420746f6b656e0000000000000000000000000000000000000000602082015250565b7f4552433732313a207472616e73666572206f6620746f6b656e2074686174206960008201527f73206e6f74206f776e0000000000000000000000000000000000000000000000602082015250565b7f7b226e616d65223a202200000000000000000000000000000000000000000000600082015250565b7f4552433732313a20617070726f76616c20746f2063757272656e74206f776e6560008201527f7200000000000000000000000000000000000000000000000000000000000000602082015250565b7f646174613a6170706c69636174696f6e2f6a736f6e3b6261736536342c000000600082015250565b7f4552433732313a207472616e736665722063616c6c6572206973206e6f74206f60008201527f776e6572206e6f7220617070726f766564000000000000000000000000000000602082015250565b7f222c202261747472696275746573223a205b207b202274726169745f7479706560008201527f223a20224865616c746820506f696e7473222c202276616c7565223a20000000602082015250565b7f7d2c207b202274726169745f74797065223a202241747461636b2044616d616760008201527f65222c202276616c7565223a2000000000000000000000000000000000000000602082015250565b7f7d2c207b202274726169745f74797065223a2022446566656e7365222c20227660008201527f616c7565223a2000000000000000000000000000000000000000000000000000602082015250565b61468881613d62565b811461469357600080fd5b50565b61469f81613d74565b81146146aa57600080fd5b50565b6146b681613d80565b81146146c157600080fd5b50565b6146cd81613dcc565b81146146d857600080fd5b50565b6146e481613dd6565b81146146ef57600080fd5b5056fe506c617965722061747461636b656420626f73732e204e657720626f73732068703a2025734142434445464748494a4b4c4d4e4f505152535455565758595a6162636465666768696a6b6c6d6e6f707172737475767778797a303132333435363738392b2f426f73732061747461636b656420706c617965722e204e657720706c617965722068703a2025730a426f73732061637475616c6c79206b696c6c656420796f752e20596f752063616e277420726576697665206e6f77214d696e746564204e465420772f20746f6b656e496420257320616e6420636861726163746572496e646578202573796f752068617665207375636365737366756c6c792064656665617465642074686520626f73730a506c6179657220772f206368617261637465722025732061626f757420746f2061747461636b2e2048617320257320485020616e64202573204144a2646970667358221220312ff14d1119172ff1b2baae84343b968c24731ceceac047165363e07240705564736f6c63430008040033",
  "linkReferences": {},
  "deployedLinkReferences": {}
}