{
  "_format": "hh-sol-artifact-1",
  "contractName": "GodOfWarBattle",
  "sourceName": "contracts/MyEpicGame.sol",
  "abi": [
    {
      "inputs": [
        {
          "internalType": "string[]",
          "name": "_names",
          "type": "string[]"
        },
        {
          "internalType": "string[]",
          "name": "_imageURI",
          "type": "string[]"
        },
        {
          "internalType": "uint32[]",
          "name": "_hp",
          "type": "uint32[]"
        },
        {
          "internalType": "uint32[]",
          "name": "_attackDamage",
          "type": "uint32[]"
        },
        {
          "internalType": "uint32[]",
          "name": "_superAttackDamage",
          "type": "uint32[]"
        },
        {
          "internalType": "uint32[]",
          "name": "_defense",
          "type": "uint32[]"
        },
        {
          "internalType": "string",
          "name": "bossName",
          "type": "string"
        },
        {
          "internalType": "string",
          "name": "bossImageURI",
          "type": "string"
        },
        {
          "internalType": "uint32",
          "name": "bossHp",
          "type": "uint32"
        },
        {
          "internalType": "uint32",
          "name": "bossAttackDamage",
          "type": "uint32"
        }
      ],
      "stateMutability": "nonpayable",
      "type": "constructor"
    },
    {
      "anonymous": false,
      "inputs": [
        {
          "indexed": true,
          "internalType": "address",
          "name": "owner",
          "type": "address"
        },
        {
          "indexed": true,
          "internalType": "address",
          "name": "approved",
          "type": "address"
        },
        {
          "indexed": true,
          "internalType": "uint256",
          "name": "tokenId",
          "type": "uint256"
        }
      ],
      "name": "Approval",
      "type": "event"
    },
    {
      "anonymous": false,
      "inputs": [
        {
          "indexed": true,
          "internalType": "address",
          "name": "owner",
          "type": "address"
        },
        {
          "indexed": true,
          "internalType": "address",
          "name": "operator",
          "type": "address"
        },
        {
          "indexed": false,
          "internalType": "bool",
          "name": "approved",
          "type": "bool"
        }
      ],
      "name": "ApprovalForAll",
      "type": "event"
    },
    {
      "anonymous": false,
      "inputs": [
        {
          "indexed": false,
          "internalType": "uint256",
          "name": "newBossHp",
          "type": "uint256"
        },
        {
          "indexed": false,
          "internalType": "uint256",
          "name": "newPlayerHp",
          "type": "uint256"
        }
      ],
      "name": "AttackComplete",
      "type": "event"
    },
    {
      "anonymous": false,
      "inputs": [
        {
          "indexed": false,
          "internalType": "address",
          "name": "sender",
          "type": "address"
        },
        {
          "indexed": false,
          "internalType": "uint256",
          "name": "tokenId",
          "type": "uint256"
        },
        {
          "indexed": false,
          "internalType": "uint256",
          "name": "characterIndex",
          "type": "uint256"
        }
      ],
      "name": "CharacterNFTMinted",
      "type": "event"
    },
    {
      "anonymous": false,
      "inputs": [
        {
          "indexed": true,
          "internalType": "address",
          "name": "from",
          "type": "address"
        },
        {
          "indexed": true,
          "internalType": "address",
          "name": "to",
          "type": "address"
        },
        {
          "indexed": true,
          "internalType": "uint256",
          "name": "tokenId",
          "type": "uint256"
        }
      ],
      "name": "Transfer",
      "type": "event"
    },
    {
      "inputs": [
        {
          "internalType": "address",
          "name": "to",
          "type": "address"
        },
        {
          "internalType": "uint256",
          "name": "tokenId",
          "type": "uint256"
        }
      ],
      "name": "approve",
      "outputs": [],
      "stateMutability": "nonpayable",
      "type": "function"
    },
    {
      "inputs": [],
      "name": "attackBoss",
      "outputs": [],
      "stateMutability": "nonpayable",
      "type": "function"
    },
    {
      "inputs": [
        {
          "internalType": "address",
          "name": "owner",
          "type": "address"
        }
      ],
      "name": "balanceOf",
      "outputs": [
        {
          "internalType": "uint256",
          "name": "",
          "type": "uint256"
        }
      ],
      "stateMutability": "view",
      "type": "function"
    },
    {
      "inputs": [],
      "name": "bigBoss",
      "outputs": [
        {
          "internalType": "uint32",
          "name": "hp",
          "type": "uint32"
        },
        {
          "internalType": "uint32",
          "name": "maxHp",
          "type": "uint32"
        },
        {
          "internalType": "uint32",
          "name": "attackDamage",
          "type": "uint32"
        },
        {
          "internalType": "string",
          "name": "name",
          "type": "string"
        },
        {
          "internalType": "string",
          "name": "imageURI",
          "type": "string"
        }
      ],
      "stateMutability": "view",
      "type": "function"
    },
    {
      "inputs": [],
      "name": "checkIfUserHasNFT",
      "outputs": [
        {
          "components": [
            {
              "internalType": "uint32",
              "name": "hp",
              "type": "uint32"
            },
            {
              "internalType": "uint32",
              "name": "maxHp",
              "type": "uint32"
            },
            {
              "internalType": "uint32",
              "name": "characterIndex",
              "type": "uint32"
            },
            {
              "internalType": "uint32",
              "name": "attackDamage",
              "type": "uint32"
            },
            {
              "internalType": "uint32",
              "name": "superAttackDamage",
              "type": "uint32"
            },
            {
              "internalType": "uint32",
              "name": "defense",
              "type": "uint32"
            },
            {
              "internalType": "string",
              "name": "name",
              "type": "string"
            },
            {
              "internalType": "string",
              "name": "imageURI",
              "type": "string"
            }
          ],
          "internalType": "struct GodOfWarBattle.CharacterAttributes",
          "name": "",
          "type": "tuple"
        }
      ],
      "stateMutability": "view",
      "type": "function"
    },
    {
      "inputs": [],
      "name": "getAllDefaultCharacters",
      "outputs": [
        {
          "components": [
            {
              "internalType": "uint32",
              "name": "hp",
              "type": "uint32"
            },
            {
              "internalType": "uint32",
              "name": "maxHp",
              "type": "uint32"
            },
            {
              "internalType": "uint32",
              "name": "characterIndex",
              "type": "uint32"
            },
            {
              "internalType": "uint32",
              "name": "attackDamage",
              "type": "uint32"
            },
            {
              "internalType": "uint32",
              "name": "superAttackDamage",
              "type": "uint32"
            },
            {
              "internalType": "uint32",
              "name": "defense",
              "type": "uint32"
            },
            {
              "internalType": "string",
              "name": "name",
              "type": "string"
            },
            {
              "internalType": "string",
              "name": "imageURI",
              "type": "string"
            }
          ],
          "internalType": "struct GodOfWarBattle.CharacterAttributes[]",
          "name": "",
          "type": "tuple[]"
        }
      ],
      "stateMutability": "view",
      "type": "function"
    },
    {
      "inputs": [
        {
          "internalType": "uint256",
          "name": "tokenId",
          "type": "uint256"
        }
      ],
      "name": "getApproved",
      "outputs": [
        {
          "internalType": "address",
          "name": "",
          "type": "address"
        }
      ],
      "stateMutability": "view",
      "type": "function"
    },
    {
      "inputs": [],
      "name": "getBoss",
      "outputs": [
        {
          "components": [
            {
              "internalType": "uint32",
              "name": "hp",
              "type": "uint32"
            },
            {
              "internalType": "uint32",
              "name": "maxHp",
              "type": "uint32"
            },
            {
              "internalType": "uint32",
              "name": "attackDamage",
              "type": "uint32"
            },
            {
              "internalType": "string",
              "name": "name",
              "type": "string"
            },
            {
              "internalType": "string",
              "name": "imageURI",
              "type": "string"
            }
          ],
          "internalType": "struct GodOfWarBattle.BigBoss",
          "name": "",
          "type": "tuple"
        }
      ],
      "stateMutability": "view",
      "type": "function"
    },
    {
      "inputs": [
        {
          "internalType": "address",
          "name": "owner",
          "type": "address"
        },
        {
          "internalType": "address",
          "name": "operator",
          "type": "address"
        }
      ],
      "name": "isApprovedForAll",
      "outputs": [
        {
          "internalType": "bool",
          "name": "",
          "type": "bool"
        }
      ],
      "stateMutability": "view",
      "type": "function"
    },
    {
      "inputs": [
        {
          "internalType": "uint32",
          "name": "_characterIndex",
          "type": "uint32"
        }
      ],
      "name": "mintCharacterNFT",
      "outputs": [],
      "stateMutability": "nonpayable",
      "type": "function"
    },
    {
      "inputs": [],
      "name": "name",
      "outputs": [
        {
          "internalType": "string",
          "name": "",
          "type": "string"
        }
      ],
      "stateMutability": "view",
      "type": "function"
    },
    {
      "inputs": [
        {
          "internalType": "address",
          "name": "",
          "type": "address"
        }
      ],
      "name": "nftHolders",
      "outputs": [
        {
          "internalType": "uint256",
          "name": "",
          "type": "uint256"
        }
      ],
      "stateMutability": "view",
      "type": "function"
    },
    {
      "inputs": [
        {
          "internalType": "uint256",
          "name": "",
          "type": "uint256"
        }
      ],
      "name": "nftHoldersAttributes",
      "outputs": [
        {
          "internalType": "uint32",
          "name": "hp",
          "type": "uint32"
        },
        {
          "internalType": "uint32",
          "name": "maxHp",
          "type": "uint32"
        },
        {
          "internalType": "uint32",
          "name": "characterIndex",
          "type": "uint32"
        },
        {
          "internalType": "uint32",
          "name": "attackDamage",
          "type": "uint32"
        },
        {
          "internalType": "uint32",
          "name": "superAttackDamage",
          "type": "uint32"
        },
        {
          "internalType": "uint32",
          "name": "defense",
          "type": "uint32"
        },
        {
          "internalType": "string",
          "name": "name",
          "type": "string"
        },
        {
          "internalType": "string",
          "name": "imageURI",
          "type": "string"
        }
      ],
      "stateMutability": "view",
      "type": "function"
    },
    {
      "inputs": [
        {
          "internalType": "uint256",
          "name": "tokenId",
          "type": "uint256"
        }
      ],
      "name": "ownerOf",
      "outputs": [
        {
          "internalType": "address",
          "name": "",
          "type": "address"
        }
      ],
      "stateMutability": "view",
      "type": "function"
    },
    {
      "inputs": [
        {
          "internalType": "address",
          "name": "from",
          "type": "address"
        },
        {
          "internalType": "address",
          "name": "to",
          "type": "address"
        },
        {
          "internalType": "uint256",
          "name": "tokenId",
          "type": "uint256"
        }
      ],
      "name": "safeTransferFrom",
      "outputs": [],
      "stateMutability": "nonpayable",
      "type": "function"
    },
    {
      "inputs": [
        {
          "internalType": "address",
          "name": "from",
          "type": "address"
        },
        {
          "internalType": "address",
          "name": "to",
          "type": "address"
        },
        {
          "internalType": "uint256",
          "name": "tokenId",
          "type": "uint256"
        },
        {
          "internalType": "bytes",
          "name": "_data",
          "type": "bytes"
        }
      ],
      "name": "safeTransferFrom",
      "outputs": [],
      "stateMutability": "nonpayable",
      "type": "function"
    },
    {
      "inputs": [
        {
          "internalType": "address",
          "name": "operator",
          "type": "address"
        },
        {
          "internalType": "bool",
          "name": "approved",
          "type": "bool"
        }
      ],
      "name": "setApprovalForAll",
      "outputs": [],
      "stateMutability": "nonpayable",
      "type": "function"
    },
    {
      "inputs": [
        {
          "internalType": "string",
          "name": "uri",
          "type": "string"
        }
      ],
      "name": "setBigBossURI",
      "outputs": [],
      "stateMutability": "nonpayable",
      "type": "function"
    },
    {
      "inputs": [
        {
          "internalType": "bytes4",
          "name": "interfaceId",
          "type": "bytes4"
        }
      ],
      "name": "supportsInterface",
      "outputs": [
        {
          "internalType": "bool",
          "name": "",
          "type": "bool"
        }
      ],
      "stateMutability": "view",
      "type": "function"
    },
    {
      "inputs": [],
      "name": "symbol",
      "outputs": [
        {
          "internalType": "string",
          "name": "",
          "type": "string"
        }
      ],
      "stateMutability": "view",
      "type": "function"
    },
    {
      "inputs": [
        {
          "internalType": "uint256",
          "name": "_tokenId",
          "type": "uint256"
        }
      ],
      "name": "tokenURI",
      "outputs": [
        {
          "internalType": "string",
          "name": "",
          "type": "string"
        }
      ],
      "stateMutability": "view",
      "type": "function"
    },
    {
      "inputs": [
        {
          "internalType": "address",
          "name": "from",
          "type": "address"
        },
        {
          "internalType": "address",
          "name": "to",
          "type": "address"
        },
        {
          "internalType": "uint256",
          "name": "tokenId",
          "type": "uint256"
        }
      ],
      "name": "transferFrom",
      "outputs": [],
      "stateMutability": "nonpayable",
      "type": "function"
    }
  ],
  "bytecode": "0x60806040523480156200001157600080fd5b506040516200637e3803806200637e8339818101604052810190620000379190620009cd565b6040518060400160405280600e81526020017f476f644f66576172426174746c650000000000000000000000000000000000008152506040518060400160405280600481526020017f474f4442000000000000000000000000000000000000000000000000000000008152508160009080519060200190620000bb92919062000735565b508060019080519060200190620000d492919062000735565b5050506040518060a001604052808363ffffffff1681526020018363ffffffff1681526020018263ffffffff16815260200185815260200184815250600a60008201518160000160006101000a81548163ffffffff021916908363ffffffff16021790555060208201518160000160046101000a81548163ffffffff021916908363ffffffff16021790555060408201518160000160086101000a81548163ffffffff021916908363ffffffff1602179055506060820151816001019080519060200190620001a592919062000735565b506080820151816002019080519060200190620001c492919062000735565b50905050620002136040518060400160405280601381526020017f426967426f737320496e697469616c697a6564000000000000000000000000008152506200065360201b620024361760201c565b60005b8a518163ffffffff1610156200062b5760096040518061010001604052808b8463ffffffff168151811062000274577f4e487b7100000000000000000000000000000000000000000000000000000000600052603260045260246000fd5b602002602001015163ffffffff1681526020018b8463ffffffff1681518110620002c7577f4e487b7100000000000000000000000000000000000000000000000000000000600052603260045260246000fd5b602002602001015163ffffffff1681526020018363ffffffff1681526020018a8463ffffffff168151811062000326577f4e487b7100000000000000000000000000000000000000000000000000000000600052603260045260246000fd5b602002602001015163ffffffff168152602001898463ffffffff168151811062000379577f4e487b7100000000000000000000000000000000000000000000000000000000600052603260045260246000fd5b602002602001015163ffffffff168152602001888463ffffffff1681518110620003cc577f4e487b7100000000000000000000000000000000000000000000000000000000600052603260045260246000fd5b602002602001015163ffffffff1681526020018d8463ffffffff16815181106200041f577f4e487b7100000000000000000000000000000000000000000000000000000000600052603260045260246000fd5b602002602001015181526020018c8463ffffffff16815181106200046c577f4e487b7100000000000000000000000000000000000000000000000000000000600052603260045260246000fd5b6020026020010151815250908060018154018082558091505060019003906000526020600020906003020160009091909190915060008201518160000160006101000a81548163ffffffff021916908363ffffffff16021790555060208201518160000160046101000a81548163ffffffff021916908363ffffffff16021790555060408201518160000160086101000a81548163ffffffff021916908363ffffffff160217905550606082015181600001600c6101000a81548163ffffffff021916908363ffffffff16021790555060808201518160000160106101000a81548163ffffffff021916908363ffffffff16021790555060a08201518160000160146101000a81548163ffffffff021916908363ffffffff16021790555060c0820151816001019080519060200190620005a892919062000735565b5060e0820151816002019080519060200190620005c792919062000735565b505050620006156040518060400160405280601f81526020017f64656661756c744368617261637465727320496e697469616c697a65643a20008152506200065360201b620024361760201c565b8080620006229062000d75565b91505062000216565b50620006436006620006f660201b620024cf1760201c565b5050505050505050505062000e5f565b620006f3816040516024016200066a919062000bc6565b6040516020818303038152906040527f41304fac000000000000000000000000000000000000000000000000000000007bffffffffffffffffffffffffffffffffffffffffffffffffffffffff19166020820180517bffffffffffffffffffffffffffffffffffffffffffffffffffffffff83818316178352505050506200070c60201b60201c565b50565b6001816000016000828254019250508190555050565b60008151905060006a636f6e736f6c652e6c6f679050602083016000808483855afa5050505050565b828054620007439062000d09565b90600052602060002090601f016020900481019282620007675760008555620007b3565b82601f106200078257805160ff1916838001178555620007b3565b82800160010185558215620007b3579182015b82811115620007b257825182559160200191906001019062000795565b5b509050620007c29190620007c6565b5090565b5b80821115620007e1576000816000905550600101620007c7565b5090565b6000620007fc620007f68462000c13565b62000bea565b905080838252602082019050828560208602820111156200081c57600080fd5b60005b858110156200086b57815167ffffffffffffffff8111156200084057600080fd5b8086016200084f898262000989565b855260208501945060208401935050506001810190506200081f565b5050509392505050565b60006200088c620008868462000c42565b62000bea565b90508083825260208201905082856020860282011115620008ac57600080fd5b60005b85811015620008e05781620008c58882620009b6565b845260208401935060208301925050600181019050620008af565b5050509392505050565b600062000901620008fb8462000c71565b62000bea565b9050828152602081018484840111156200091a57600080fd5b6200092784828562000cd3565b509392505050565b600082601f8301126200094157600080fd5b815162000953848260208601620007e5565b91505092915050565b600082601f8301126200096e57600080fd5b81516200098084826020860162000875565b91505092915050565b600082601f8301126200099b57600080fd5b8151620009ad848260208601620008ea565b91505092915050565b600081519050620009c78162000e45565b92915050565b6000806000806000806000806000806101408b8d031215620009ee57600080fd5b60008b015167ffffffffffffffff81111562000a0957600080fd5b62000a178d828e016200092f565b9a505060208b015167ffffffffffffffff81111562000a3557600080fd5b62000a438d828e016200092f565b99505060408b015167ffffffffffffffff81111562000a6157600080fd5b62000a6f8d828e016200095c565b98505060608b015167ffffffffffffffff81111562000a8d57600080fd5b62000a9b8d828e016200095c565b97505060808b015167ffffffffffffffff81111562000ab957600080fd5b62000ac78d828e016200095c565b96505060a08b015167ffffffffffffffff81111562000ae557600080fd5b62000af38d828e016200095c565b95505060c08b015167ffffffffffffffff81111562000b1157600080fd5b62000b1f8d828e0162000989565b94505060e08b015167ffffffffffffffff81111562000b3d57600080fd5b62000b4b8d828e0162000989565b93505061010062000b5f8d828e01620009b6565b92505061012062000b738d828e01620009b6565b9150509295989b9194979a5092959850565b600062000b928262000ca7565b62000b9e818562000cb2565b935062000bb081856020860162000cd3565b62000bbb8162000e34565b840191505092915050565b6000602082019050818103600083015262000be2818462000b85565b905092915050565b600062000bf662000c09565b905062000c04828262000d3f565b919050565b6000604051905090565b600067ffffffffffffffff82111562000c315762000c3062000e05565b5b602082029050602081019050919050565b600067ffffffffffffffff82111562000c605762000c5f62000e05565b5b602082029050602081019050919050565b600067ffffffffffffffff82111562000c8f5762000c8e62000e05565b5b62000c9a8262000e34565b9050602081019050919050565b600081519050919050565b600082825260208201905092915050565b600063ffffffff82169050919050565b60005b8381101562000cf357808201518184015260208101905062000cd6565b8381111562000d03576000848401525b50505050565b6000600282049050600182168062000d2257607f821691505b6020821081141562000d395762000d3862000dd6565b5b50919050565b62000d4a8262000e34565b810181811067ffffffffffffffff8211171562000d6c5762000d6b62000e05565b5b80604052505050565b600062000d828262000cc3565b915063ffffffff82141562000d9c5762000d9b62000da7565b5b600182019050919050565b7f4e487b7100000000000000000000000000000000000000000000000000000000600052601160045260246000fd5b7f4e487b7100000000000000000000000000000000000000000000000000000000600052602260045260246000fd5b7f4e487b7100000000000000000000000000000000000000000000000000000000600052604160045260246000fd5b6000601f19601f8301169050919050565b62000e508162000cc3565b811462000e5c57600080fd5b50565b61550f8062000e6f6000396000f3fe608060405234801561001057600080fd5b50600436106101425760003560e01c80637df124a1116100b8578063b953084e1161007c578063b953084e14610390578063c76d9e7d146103ae578063c87b56dd146103cc578063c8cf27f4146103fc578063d4f24c5b1461041a578063e985e9c51461042457610142565b80637df124a1146102e857806395d89b4114610318578063a22cb46514610336578063a9c3267914610352578063b88d4fde1461037457610142565b80632910e22d1161010a5780632910e22d146101fd578063374bf6ba146102195780633ba9bf161461023557806342842e0e1461026c5780636352211e1461028857806370a08231146102b857610142565b806301ffc9a71461014757806306fdde0314610177578063081812fc14610195578063095ea7b3146101c557806323b872dd146101e1575b600080fd5b610161600480360381019061015c91906139a1565b610454565b60405161016e9190614356565b60405180910390f35b61017f610536565b60405161018c9190614371565b60405180910390f35b6101af60048036038101906101aa9190613a38565b6105c8565b6040516101bc9190614296565b60405180910390f35b6101df60048036038101906101da9190613965565b61064d565b005b6101fb60048036038101906101f6919061385f565b610765565b005b61021760048036038101906102129190613a61565b6107c5565b005b610233600480360381019061022e91906139f3565b610e61565b005b61024f600480360381019061024a9190613a38565b610e7a565b604051610263989796959493929190614732565b60405180910390f35b6102866004803603810190610281919061385f565b611032565b005b6102a2600480360381019061029d9190613a38565b611052565b6040516102af9190614296565b60405180910390f35b6102d260048036038101906102cd91906137fa565b611104565b6040516102df919061468d565b60405180910390f35b61030260048036038101906102fd91906137fa565b6111bc565b60405161030f919061468d565b60405180910390f35b6103206111d4565b60405161032d9190614371565b60405180910390f35b610350600480360381019061034b9190613929565b611266565b005b61035a61127c565b60405161036b9594939291906146d1565b60405180910390f35b61038e600480360381019061038991906138ae565b6113e0565b005b610398611442565b6040516103a59190614334565b60405180910390f35b6103b66116aa565b6040516103c39190614649565b60405180910390f35b6103e660048036038101906103e19190613a38565b61185a565b6040516103f39190614371565b60405180910390f35b610404611b78565b604051610411919061466b565b60405180910390f35b610422611e0d565b005b61043e60048036038101906104399190613823565b6123a2565b60405161044b9190614356565b60405180910390f35b60007f80ac58cd000000000000000000000000000000000000000000000000000000007bffffffffffffffffffffffffffffffffffffffffffffffffffffffff1916827bffffffffffffffffffffffffffffffffffffffffffffffffffffffff1916148061051f57507f5b5e139f000000000000000000000000000000000000000000000000000000007bffffffffffffffffffffffffffffffffffffffffffffffffffffffff1916827bffffffffffffffffffffffffffffffffffffffffffffffffffffffff1916145b8061052f575061052e826124e5565b5b9050919050565b60606000805461054590614ac2565b80601f016020809104026020016040519081016040528092919081815260200182805461057190614ac2565b80156105be5780601f10610593576101008083540402835291602001916105be565b820191906000526020600020905b8154815290600101906020018083116105a157829003601f168201915b5050505050905090565b60006105d38261254f565b610612576040517f08c379a0000000000000000000000000000000000000000000000000000000008152600401610609906145c9565b60405180910390fd5b6004600083815260200190815260200160002060009054906101000a900473ffffffffffffffffffffffffffffffffffffffff169050919050565b600061065882611052565b90508073ffffffffffffffffffffffffffffffffffffffff168373ffffffffffffffffffffffffffffffffffffffff1614156106c9576040517f08c379a00000000000000000000000000000000000000000000000000000000081526004016106c090614609565b60405180910390fd5b8073ffffffffffffffffffffffffffffffffffffffff166106e86125bb565b73ffffffffffffffffffffffffffffffffffffffff1614806107175750610716816107116125bb565b6123a2565b5b610756576040517f08c379a000000000000000000000000000000000000000000000000000000000815260040161074d90614529565b60405180910390fd5b61076083836125c3565b505050565b6107766107706125bb565b8261267c565b6107b5576040517f08c379a00000000000000000000000000000000000000000000000000000000081526004016107ac90614629565b60405180910390fd5b6107c083838361275a565b505050565b60006107d160066129b6565b90506107dd33826129c4565b60405180610100016040528060098463ffffffff1681548110610829577f4e487b7100000000000000000000000000000000000000000000000000000000600052603260045260246000fd5b906000526020600020906003020160000160009054906101000a900463ffffffff1663ffffffff16815260200160098463ffffffff1681548110610896577f4e487b7100000000000000000000000000000000000000000000000000000000600052603260045260246000fd5b906000526020600020906003020160000160049054906101000a900463ffffffff1663ffffffff1681526020018363ffffffff16815260200160098463ffffffff168154811061090f577f4e487b7100000000000000000000000000000000000000000000000000000000600052603260045260246000fd5b9060005260206000209060030201600001600c9054906101000a900463ffffffff1663ffffffff16815260200160098463ffffffff168154811061097c577f4e487b7100000000000000000000000000000000000000000000000000000000600052603260045260246000fd5b906000526020600020906003020160000160109054906101000a900463ffffffff1663ffffffff16815260200160098463ffffffff16815481106109e9577f4e487b7100000000000000000000000000000000000000000000000000000000600052603260045260246000fd5b906000526020600020906003020160000160149054906101000a900463ffffffff1663ffffffff16815260200160098463ffffffff1681548110610a56577f4e487b7100000000000000000000000000000000000000000000000000000000600052603260045260246000fd5b90600052602060002090600302016001018054610a7290614ac2565b80601f0160208091040260200160405190810160405280929190818152602001828054610a9e90614ac2565b8015610aeb5780601f10610ac057610100808354040283529160200191610aeb565b820191906000526020600020905b815481529060010190602001808311610ace57829003601f168201915b5050505050815260200160098463ffffffff1681548110610b35577f4e487b7100000000000000000000000000000000000000000000000000000000600052603260045260246000fd5b90600052602060002090600302016002018054610b5190614ac2565b80601f0160208091040260200160405190810160405280929190818152602001828054610b7d90614ac2565b8015610bca5780601f10610b9f57610100808354040283529160200191610bca565b820191906000526020600020905b815481529060010190602001808311610bad57829003601f168201915b50505050508152506008600083815260200190815260200160002060008201518160000160006101000a81548163ffffffff021916908363ffffffff16021790555060208201518160000160046101000a81548163ffffffff021916908363ffffffff16021790555060408201518160000160086101000a81548163ffffffff021916908363ffffffff160217905550606082015181600001600c6101000a81548163ffffffff021916908363ffffffff16021790555060808201518160000160106101000a81548163ffffffff021916908363ffffffff16021790555060a08201518160000160146101000a81548163ffffffff021916908363ffffffff16021790555060c0820151816001019080519060200190610ceb9291906134f7565b5060e0820151816002019080519060200190610d089291906134f7565b5090505080600760003373ffffffffffffffffffffffffffffffffffffffff1673ffffffffffffffffffffffffffffffffffffffff168152602001908152602001600020819055507f4bc303fd457a97b4691b9af582ce71868a3d258638c8d4f8c60988a0f0bfb8cd338284604051610d83939291906142fd565b60405180910390a1610e536040518060600160405280602e8152602001615449602e9139828463ffffffff16600860008681526020019081526020016000206002018054610dd090614ac2565b80601f0160208091040260200160405190810160405280929190818152602001828054610dfc90614ac2565b8015610e495780601f10610e1e57610100808354040283529160200191610e49565b820191906000526020600020905b815481529060010190602001808311610e2c57829003601f168201915b50505050506129e2565b610e5d60066124cf565b5050565b8181600a6002019190610e7592919061357d565b505050565b60086020528060005260406000206000915090508060000160009054906101000a900463ffffffff16908060000160049054906101000a900463ffffffff16908060000160089054906101000a900463ffffffff169080600001600c9054906101000a900463ffffffff16908060000160109054906101000a900463ffffffff16908060000160149054906101000a900463ffffffff1690806001018054610f2190614ac2565b80601f0160208091040260200160405190810160405280929190818152602001828054610f4d90614ac2565b8015610f9a5780601f10610f6f57610100808354040283529160200191610f9a565b820191906000526020600020905b815481529060010190602001808311610f7d57829003601f168201915b505050505090806002018054610faf90614ac2565b80601f0160208091040260200160405190810160405280929190818152602001828054610fdb90614ac2565b80156110285780601f10610ffd57610100808354040283529160200191611028565b820191906000526020600020905b81548152906001019060200180831161100b57829003601f168201915b5050505050905088565b61104d838383604051806020016040528060008152506113e0565b505050565b6000806002600084815260200190815260200160002060009054906101000a900473ffffffffffffffffffffffffffffffffffffffff169050600073ffffffffffffffffffffffffffffffffffffffff168173ffffffffffffffffffffffffffffffffffffffff1614156110fb576040517f08c379a00000000000000000000000000000000000000000000000000000000081526004016110f290614589565b60405180910390fd5b80915050919050565b60008073ffffffffffffffffffffffffffffffffffffffff168273ffffffffffffffffffffffffffffffffffffffff161415611175576040517f08c379a000000000000000000000000000000000000000000000000000000000815260040161116c90614569565b60405180910390fd5b600360008373ffffffffffffffffffffffffffffffffffffffff1673ffffffffffffffffffffffffffffffffffffffff168152602001908152602001600020549050919050565b60076020528060005260406000206000915090505481565b6060600180546111e390614ac2565b80601f016020809104026020016040519081016040528092919081815260200182805461120f90614ac2565b801561125c5780601f106112315761010080835404028352916020019161125c565b820191906000526020600020905b81548152906001019060200180831161123f57829003601f168201915b5050505050905090565b6112786112716125bb565b8383612a84565b5050565b600a8060000160009054906101000a900463ffffffff16908060000160049054906101000a900463ffffffff16908060000160089054906101000a900463ffffffff16908060010180546112cf90614ac2565b80601f01602080910402602001604051908101604052809291908181526020018280546112fb90614ac2565b80156113485780601f1061131d57610100808354040283529160200191611348565b820191906000526020600020905b81548152906001019060200180831161132b57829003601f168201915b50505050509080600201805461135d90614ac2565b80601f016020809104026020016040519081016040528092919081815260200182805461138990614ac2565b80156113d65780601f106113ab576101008083540402835291602001916113d6565b820191906000526020600020905b8154815290600101906020018083116113b957829003601f168201915b5050505050905085565b6113f16113eb6125bb565b8361267c565b611430576040517f08c379a000000000000000000000000000000000000000000000000000000000815260040161142790614629565b60405180910390fd5b61143c84848484612bf1565b50505050565b60606009805480602002602001604051908101604052809291908181526020016000905b828210156116a15783829060005260206000209060030201604051806101000160405290816000820160009054906101000a900463ffffffff1663ffffffff1663ffffffff1681526020016000820160049054906101000a900463ffffffff1663ffffffff1663ffffffff1681526020016000820160089054906101000a900463ffffffff1663ffffffff1663ffffffff16815260200160008201600c9054906101000a900463ffffffff1663ffffffff1663ffffffff1681526020016000820160109054906101000a900463ffffffff1663ffffffff1663ffffffff1681526020016000820160149054906101000a900463ffffffff1663ffffffff1663ffffffff16815260200160018201805461157e90614ac2565b80601f01602080910402602001604051908101604052809291908181526020018280546115aa90614ac2565b80156115f75780601f106115cc576101008083540402835291602001916115f7565b820191906000526020600020905b8154815290600101906020018083116115da57829003601f168201915b5050505050815260200160028201805461161090614ac2565b80601f016020809104026020016040519081016040528092919081815260200182805461163c90614ac2565b80156116895780601f1061165e57610100808354040283529160200191611689565b820191906000526020600020905b81548152906001019060200180831161166c57829003601f168201915b50505050508152505081526020019060010190611466565b50505050905090565b6116b2613603565b600a6040518060a00160405290816000820160009054906101000a900463ffffffff1663ffffffff1663ffffffff1681526020016000820160049054906101000a900463ffffffff1663ffffffff1663ffffffff1681526020016000820160089054906101000a900463ffffffff1663ffffffff1663ffffffff16815260200160018201805461174190614ac2565b80601f016020809104026020016040519081016040528092919081815260200182805461176d90614ac2565b80156117ba5780601f1061178f576101008083540402835291602001916117ba565b820191906000526020600020905b81548152906001019060200180831161179d57829003601f168201915b505050505081526020016002820180546117d390614ac2565b80601f01602080910402602001604051908101604052809291908181526020018280546117ff90614ac2565b801561184c5780601f106118215761010080835404028352916020019161184c565b820191906000526020600020905b81548152906001019060200180831161182f57829003601f168201915b505050505081525050905090565b6060600060086000848152602001908152602001600020604051806101000160405290816000820160009054906101000a900463ffffffff1663ffffffff1663ffffffff1681526020016000820160049054906101000a900463ffffffff1663ffffffff1663ffffffff1681526020016000820160089054906101000a900463ffffffff1663ffffffff1663ffffffff16815260200160008201600c9054906101000a900463ffffffff1663ffffffff1663ffffffff1681526020016000820160109054906101000a900463ffffffff1663ffffffff1663ffffffff1681526020016000820160149054906101000a900463ffffffff1663ffffffff1663ffffffff16815260200160018201805461197190614ac2565b80601f016020809104026020016040519081016040528092919081815260200182805461199d90614ac2565b80156119ea5780601f106119bf576101008083540402835291602001916119ea565b820191906000526020600020905b8154815290600101906020018083116119cd57829003601f168201915b50505050508152602001600282018054611a0390614ac2565b80601f0160208091040260200160405190810160405280929190818152602001828054611a2f90614ac2565b8015611a7c5780601f10611a5157610100808354040283529160200191611a7c565b820191906000526020600020905b815481529060010190602001808311611a5f57829003601f168201915b50505050508152505090506000611a9c826000015163ffffffff16612c4d565b90506000611ab3836020015163ffffffff16612c4d565b90506000611aca846060015163ffffffff16612c4d565b90506000611ae1856080015163ffffffff16612c4d565b90506000611af88660a0015163ffffffff16612c4d565b90506000611b428760c00151611b0d8b612c4d565b8960e001518989898989604051602001611b2e98979695949392919061419f565b604051602081830303815290604052612dfa565b9050600081604051602001611b579190614274565b60405160208183030381529060405290508098505050505050505050919050565b611b80613644565b6000600760003373ffffffffffffffffffffffffffffffffffffffff1673ffffffffffffffffffffffffffffffffffffffff1681526020019081526020016000205490506000811115611dfc5760086000828152602001908152602001600020604051806101000160405290816000820160009054906101000a900463ffffffff1663ffffffff1663ffffffff1681526020016000820160049054906101000a900463ffffffff1663ffffffff1663ffffffff1681526020016000820160089054906101000a900463ffffffff1663ffffffff1663ffffffff16815260200160008201600c9054906101000a900463ffffffff1663ffffffff1663ffffffff1681526020016000820160109054906101000a900463ffffffff1663ffffffff1663ffffffff1681526020016000820160149054906101000a900463ffffffff1663ffffffff1663ffffffff168152602001600182018054611ce090614ac2565b80601f0160208091040260200160405190810160405280929190818152602001828054611d0c90614ac2565b8015611d595780601f10611d2e57610100808354040283529160200191611d59565b820191906000526020600020905b815481529060010190602001808311611d3c57829003601f168201915b50505050508152602001600282018054611d7290614ac2565b80601f0160208091040260200160405190810160405280929190818152602001828054611d9e90614ac2565b8015611deb5780601f10611dc057610100808354040283529160200191611deb565b820191906000526020600020905b815481529060010190602001808311611dce57829003601f168201915b505050505081525050915050611e0a565b611e04613644565b80925050505b90565b6000600a60000160009054906101000a900463ffffffff1663ffffffff1611611e6b576040517f08c379a0000000000000000000000000000000000000000000000000000000008152600401611e6290614489565b60405180910390fd5b600060086000600760003373ffffffffffffffffffffffffffffffffffffffff1673ffffffffffffffffffffffffffffffffffffffff168152602001908152602001600020548152602001908152602001600020905060008160000160009054906101000a900463ffffffff1663ffffffff1611611f1e576040517f08c379a0000000000000000000000000000000000000000000000000000000008152600401611f1590614549565b60405180910390fd5b6120026040518060600160405280603c815260200161549e603c9139826001018054611f4990614ac2565b80601f0160208091040260200160405190810160405280929190818152602001828054611f7590614ac2565b8015611fc25780601f10611f9757610100808354040283529160200191611fc2565b820191906000526020600020905b815481529060010190602001808311611fa557829003601f168201915b50505050508360000160009054906101000a900463ffffffff1663ffffffff1684600001600c9054906101000a900463ffffffff1663ffffffff16612fb8565b6121066040518060400160405280601b81526020017f426f73732025732068617320257320485020616e642025732041440000000000815250600a600101805461204b90614ac2565b80601f016020809104026020016040519081016040528092919081815260200182805461207790614ac2565b80156120c45780601f10612099576101008083540402835291602001916120c4565b820191906000526020600020905b8154815290600101906020018083116120a757829003601f168201915b5050505050600a60000160009054906101000a900463ffffffff1663ffffffff16600a60000160089054906101000a900463ffffffff1663ffffffff16612fb8565b80600001600c9054906101000a900463ffffffff1663ffffffff16600a60000160009054906101000a900463ffffffff1663ffffffff16101561218e576000600a60000160006101000a81548163ffffffff021916908363ffffffff16021790555061218960405180606001604052806027815260200161547760279139612436565b6121e5565b80600001600c9054906101000a900463ffffffff16600a60000160008282829054906101000a900463ffffffff166121c691906149b6565b92506101000a81548163ffffffff021916908363ffffffff1602179055505b600a60000160089054906101000a900463ffffffff1663ffffffff168160000160009054906101000a900463ffffffff1663ffffffff16101561226c5760008160000160006101000a81548163ffffffff021916908363ffffffff1602179055506122676040518060600160405280602f815260200161541a602f9139612436565b6122c4565b600a60000160089054906101000a900463ffffffff168160000160009054906101000a900463ffffffff166122a191906149b6565b8160000160006101000a81548163ffffffff021916908363ffffffff1602179055505b61230160405180606001604052806025815260200161538d60259139600a60000160009054906101000a900463ffffffff1663ffffffff1661305a565b61233d6040518060600160405280602881526020016153f2602891398260000160009054906101000a900463ffffffff1663ffffffff1661305a565b7f838ab28464562786a6c4ab2311964b82fa60bd9b14aa7e856af1f3f18d41a414600a60000160009054906101000a900463ffffffff168260000160009054906101000a900463ffffffff166040516123979291906146a8565b60405180910390a150565b6000600560008473ffffffffffffffffffffffffffffffffffffffff1673ffffffffffffffffffffffffffffffffffffffff16815260200190815260200160002060008373ffffffffffffffffffffffffffffffffffffffff1673ffffffffffffffffffffffffffffffffffffffff16815260200190815260200160002060009054906101000a900460ff16905092915050565b6124cc8160405160240161244a9190614371565b6040516020818303038152906040527f41304fac000000000000000000000000000000000000000000000000000000007bffffffffffffffffffffffffffffffffffffffffffffffffffffffff19166020820180517bffffffffffffffffffffffffffffffffffffffffffffffffffffffff83818316178352505050506130f6565b50565b6001816000016000828254019250508190555050565b60007f01ffc9a7000000000000000000000000000000000000000000000000000000007bffffffffffffffffffffffffffffffffffffffffffffffffffffffff1916827bffffffffffffffffffffffffffffffffffffffffffffffffffffffff1916149050919050565b60008073ffffffffffffffffffffffffffffffffffffffff166002600084815260200190815260200160002060009054906101000a900473ffffffffffffffffffffffffffffffffffffffff1673ffffffffffffffffffffffffffffffffffffffff1614159050919050565b600033905090565b816004600083815260200190815260200160002060006101000a81548173ffffffffffffffffffffffffffffffffffffffff021916908373ffffffffffffffffffffffffffffffffffffffff160217905550808273ffffffffffffffffffffffffffffffffffffffff1661263683611052565b73ffffffffffffffffffffffffffffffffffffffff167f8c5be1e5ebec7d5bd14f71427d1e84f3dd0314c0f7b2291e5b200ac8c7c3b92560405160405180910390a45050565b60006126878261254f565b6126c6576040517f08c379a00000000000000000000000000000000000000000000000000000000081526004016126bd90614509565b60405180910390fd5b60006126d183611052565b90508073ffffffffffffffffffffffffffffffffffffffff168473ffffffffffffffffffffffffffffffffffffffff16148061274057508373ffffffffffffffffffffffffffffffffffffffff16612728846105c8565b73ffffffffffffffffffffffffffffffffffffffff16145b80612751575061275081856123a2565b5b91505092915050565b8273ffffffffffffffffffffffffffffffffffffffff1661277a82611052565b73ffffffffffffffffffffffffffffffffffffffff16146127d0576040517f08c379a00000000000000000000000000000000000000000000000000000000081526004016127c7906145e9565b60405180910390fd5b600073ffffffffffffffffffffffffffffffffffffffff168273ffffffffffffffffffffffffffffffffffffffff161415612840576040517f08c379a0000000000000000000000000000000000000000000000000000000008152600401612837906144c9565b60405180910390fd5b61284b83838361311f565b6128566000826125c3565b6001600360008573ffffffffffffffffffffffffffffffffffffffff1673ffffffffffffffffffffffffffffffffffffffff16815260200190815260200160002060008282546128a69190614982565b925050819055506001600360008473ffffffffffffffffffffffffffffffffffffffff1673ffffffffffffffffffffffffffffffffffffffff16815260200190815260200160002060008282546128fd91906148a1565b92505081905550816002600083815260200190815260200160002060006101000a81548173ffffffffffffffffffffffffffffffffffffffff021916908373ffffffffffffffffffffffffffffffffffffffff160217905550808273ffffffffffffffffffffffffffffffffffffffff168473ffffffffffffffffffffffffffffffffffffffff167fddf252ad1be2c89b69c2b068fc378daa952ba7f163c4a11628f55a4df523b3ef60405160405180910390a4505050565b600081600001549050919050565b6129de828260405180602001604052806000815250613124565b5050565b612a7e848484846040516024016129fc9493929190614416565b6040516020818303038152906040527fa54ed4bd000000000000000000000000000000000000000000000000000000007bffffffffffffffffffffffffffffffffffffffffffffffffffffffff19166020820180517bffffffffffffffffffffffffffffffffffffffffffffffffffffffff83818316178352505050506130f6565b50505050565b8173ffffffffffffffffffffffffffffffffffffffff168373ffffffffffffffffffffffffffffffffffffffff161415612af3576040517f08c379a0000000000000000000000000000000000000000000000000000000008152600401612aea906144e9565b60405180910390fd5b80600560008573ffffffffffffffffffffffffffffffffffffffff1673ffffffffffffffffffffffffffffffffffffffff16815260200190815260200160002060008473ffffffffffffffffffffffffffffffffffffffff1673ffffffffffffffffffffffffffffffffffffffff16815260200190815260200160002060006101000a81548160ff0219169083151502179055508173ffffffffffffffffffffffffffffffffffffffff168373ffffffffffffffffffffffffffffffffffffffff167f17307eab39ab6107e8899845ad3d59bd9653f200f220920489ca2b5937696c3183604051612be49190614356565b60405180910390a3505050565b612bfc84848461275a565b612c088484848461317f565b612c47576040517f08c379a0000000000000000000000000000000000000000000000000000000008152600401612c3e90614469565b60405180910390fd5b50505050565b60606000821415612c95576040518060400160405280600181526020017f30000000000000000000000000000000000000000000000000000000000000008152509050612df5565b600082905060005b60008214612cc7578080612cb090614b25565b915050600a82612cc091906148f7565b9150612c9d565b60008167ffffffffffffffff811115612d09577f4e487b7100000000000000000000000000000000000000000000000000000000600052604160045260246000fd5b6040519080825280601f01601f191660200182016040528015612d3b5781602001600182028036833780820191505090505b5090505b60008514612dee57600182612d549190614982565b9150600a85612d639190614b6e565b6030612d6f91906148a1565b60f81b818381518110612dab577f4e487b7100000000000000000000000000000000000000000000000000000000600052603260045260246000fd5b60200101907effffffffffffffffffffffffffffffffffffffffffffffffffffffffffffff1916908160001a905350600a85612de791906148f7565b9450612d3f565b8093505050505b919050565b60606000825190506000811415612e235760405180602001604052806000815250915050612fb3565b60006003600283612e3491906148a1565b612e3e91906148f7565b6004612e4a9190614928565b90506000602082612e5b91906148a1565b67ffffffffffffffff811115612e9a577f4e487b7100000000000000000000000000000000000000000000000000000000600052604160045260246000fd5b6040519080825280601f01601f191660200182016040528015612ecc5781602001600182028036833780820191505090505b50905060006040518060600160405280604081526020016153b2604091399050600181016020830160005b86811015612f705760038101905062ffffff818a015116603f8160121c168401518060081b905060ff603f83600c1c1686015116810190508060081b905060ff603f8360061c1686015116810190508060081b905060ff603f831686015116810190508060e01b90508084526004840193505050612ef7565b506003860660018114612f8a5760028114612f9a57612fa5565b613d3d60f01b6002830352612fa5565b603d60f81b60018303525b508484525050819450505050505b919050565b61305484848484604051602401612fd29493929190614393565b6040516020818303038152906040527fd5cf17d0000000000000000000000000000000000000000000000000000000007bffffffffffffffffffffffffffffffffffffffffffffffffffffffff19166020820180517bffffffffffffffffffffffffffffffffffffffffffffffffffffffff83818316178352505050506130f6565b50505050565b6130f282826040516024016130709291906143e6565b6040516020818303038152906040527f9710a9d0000000000000000000000000000000000000000000000000000000007bffffffffffffffffffffffffffffffffffffffffffffffffffffffff19166020820180517bffffffffffffffffffffffffffffffffffffffffffffffffffffffff83818316178352505050506130f6565b5050565b60008151905060006a636f6e736f6c652e6c6f679050602083016000808483855afa5050505050565b505050565b61312e8383613316565b61313b600084848461317f565b61317a576040517f08c379a000000000000000000000000000000000000000000000000000000000815260040161317190614469565b60405180910390fd5b505050565b60006131a08473ffffffffffffffffffffffffffffffffffffffff166134e4565b15613309578373ffffffffffffffffffffffffffffffffffffffff1663150b7a026131c96125bb565b8786866040518563ffffffff1660e01b81526004016131eb94939291906142b1565b602060405180830381600087803b15801561320557600080fd5b505af192505050801561323657506040513d601f19601f8201168201806040525081019061323391906139ca565b60015b6132b9573d8060008114613266576040519150601f19603f3d011682016040523d82523d6000602084013e61326b565b606091505b506000815114156132b1576040517f08c379a00000000000000000000000000000000000000000000000000000000081526004016132a890614469565b60405180910390fd5b805181602001fd5b63150b7a0260e01b7bffffffffffffffffffffffffffffffffffffffffffffffffffffffff1916817bffffffffffffffffffffffffffffffffffffffffffffffffffffffff19161491505061330e565b600190505b949350505050565b600073ffffffffffffffffffffffffffffffffffffffff168273ffffffffffffffffffffffffffffffffffffffff161415613386576040517f08c379a000000000000000000000000000000000000000000000000000000000815260040161337d906145a9565b60405180910390fd5b61338f8161254f565b156133cf576040517f08c379a00000000000000000000000000000000000000000000000000000000081526004016133c6906144a9565b60405180910390fd5b6133db6000838361311f565b6001600360008473ffffffffffffffffffffffffffffffffffffffff1673ffffffffffffffffffffffffffffffffffffffff168152602001908152602001600020600082825461342b91906148a1565b92505081905550816002600083815260200190815260200160002060006101000a81548173ffffffffffffffffffffffffffffffffffffffff021916908373ffffffffffffffffffffffffffffffffffffffff160217905550808273ffffffffffffffffffffffffffffffffffffffff16600073ffffffffffffffffffffffffffffffffffffffff167fddf252ad1be2c89b69c2b068fc378daa952ba7f163c4a11628f55a4df523b3ef60405160405180910390a45050565b600080823b905060008111915050919050565b82805461350390614ac2565b90600052602060002090601f016020900481019282613525576000855561356c565b82601f1061353e57805160ff191683800117855561356c565b8280016001018555821561356c579182015b8281111561356b578251825591602001919060010190613550565b5b50905061357991906136ad565b5090565b82805461358990614ac2565b90600052602060002090601f0160209004810192826135ab57600085556135f2565b82601f106135c457803560ff19168380011785556135f2565b828001600101855582156135f2579182015b828111156135f15782358255916020019190600101906135d6565b5b5090506135ff91906136ad565b5090565b6040518060a00160405280600063ffffffff168152602001600063ffffffff168152602001600063ffffffff16815260200160608152602001606081525090565b604051806101000160405280600063ffffffff168152602001600063ffffffff168152602001600063ffffffff168152602001600063ffffffff168152602001600063ffffffff168152602001600063ffffffff16815260200160608152602001606081525090565b5b808211156136c65760008160009055506001016136ae565b5090565b60006136dd6136d8846147e3565b6147be565b9050828152602081018484840111156136f557600080fd5b613700848285614a80565b509392505050565b60008135905061371781615319565b92915050565b60008135905061372c81615330565b92915050565b60008135905061374181615347565b92915050565b60008151905061375681615347565b92915050565b600082601f83011261376d57600080fd5b813561377d8482602086016136ca565b91505092915050565b60008083601f84011261379857600080fd5b8235905067ffffffffffffffff8111156137b157600080fd5b6020830191508360018202830111156137c957600080fd5b9250929050565b6000813590506137df8161535e565b92915050565b6000813590506137f481615375565b92915050565b60006020828403121561380c57600080fd5b600061381a84828501613708565b91505092915050565b6000806040838503121561383657600080fd5b600061384485828601613708565b925050602061385585828601613708565b9150509250929050565b60008060006060848603121561387457600080fd5b600061388286828701613708565b935050602061389386828701613708565b92505060406138a4868287016137d0565b9150509250925092565b600080600080608085870312156138c457600080fd5b60006138d287828801613708565b94505060206138e387828801613708565b93505060406138f4878288016137d0565b925050606085013567ffffffffffffffff81111561391157600080fd5b61391d8782880161375c565b91505092959194509250565b6000806040838503121561393c57600080fd5b600061394a85828601613708565b925050602061395b8582860161371d565b9150509250929050565b6000806040838503121561397857600080fd5b600061398685828601613708565b9250506020613997858286016137d0565b9150509250929050565b6000602082840312156139b357600080fd5b60006139c184828501613732565b91505092915050565b6000602082840312156139dc57600080fd5b60006139ea84828501613747565b91505092915050565b60008060208385031215613a0657600080fd5b600083013567ffffffffffffffff811115613a2057600080fd5b613a2c85828601613786565b92509250509250929050565b600060208284031215613a4a57600080fd5b6000613a58848285016137d0565b91505092915050565b600060208284031215613a7357600080fd5b6000613a81848285016137e5565b91505092915050565b6000613a968383613ff5565b905092915050565b613aa7816149ea565b82525050565b6000613ab882614824565b613ac28185614852565b935083602082028501613ad485614814565b8060005b85811015613b105784840389528151613af18582613a8a565b9450613afc83614845565b925060208a01995050600181019050613ad8565b50829750879550505050505092915050565b613b2b816149fc565b82525050565b6000613b3c8261482f565b613b468185614863565b9350613b56818560208601614a8f565b613b5f81614c5b565b840191505092915050565b6000613b758261483a565b613b7f8185614874565b9350613b8f818560208601614a8f565b613b9881614c5b565b840191505092915050565b6000613bae8261483a565b613bb88185614885565b9350613bc8818560208601614a8f565b613bd181614c5b565b840191505092915050565b6000613be78261483a565b613bf18185614896565b9350613c01818560208601614a8f565b80840191505092915050565b6000613c1a600b83614896565b9150613c2582614c6c565b600b82019050919050565b6000613c3d603283614885565b9150613c4882614c95565b604082019050919050565b6000613c60601a83614885565b9150613c6b82614ce4565b602082019050919050565b6000613c83601c83614885565b9150613c8e82614d0d565b602082019050919050565b6000613ca6600e83614896565b9150613cb182614d36565b600e82019050919050565b6000613cc9602483614885565b9150613cd482614d5f565b604082019050919050565b6000613cec601983614885565b9150613cf782614dae565b602082019050919050565b6000613d0f602c83614885565b9150613d1a82614dd7565b604082019050919050565b6000613d32603883614885565b9150613d3d82614e26565b604082019050919050565b6000613d55602b83614885565b9150613d6082614e75565b604082019050919050565b6000613d78602a83614885565b9150613d8382614ec4565b604082019050919050565b6000613d9b602983614885565b9150613da682614f13565b604082019050919050565b6000613dbe603383614896565b9150613dc982614f62565b603382019050919050565b6000613de1606283614896565b9150613dec82614fb1565b606282019050919050565b6000613e04600483614896565b9150613e0f8261504c565b600482019050919050565b6000613e27602083614885565b9150613e3282615075565b602082019050919050565b6000613e4a602c83614885565b9150613e558261509e565b604082019050919050565b6000613e6d602983614885565b9150613e78826150ed565b604082019050919050565b6000613e90600a83614896565b9150613e9b8261513c565b600a82019050919050565b6000613eb3602183614885565b9150613ebe82615165565b604082019050919050565b6000613ed6601d83614896565b9150613ee1826151b4565b601d82019050919050565b6000613ef9603183614885565b9150613f04826151dd565b604082019050919050565b6000613f1c603d83614896565b9150613f278261522c565b603d82019050919050565b6000613f3f602d83614896565b9150613f4a8261527b565b602d82019050919050565b6000613f62602783614896565b9150613f6d826152ca565b602782019050919050565b600060a083016000830151613f906000860182614181565b506020830151613fa36020860182614181565b506040830151613fb66040860182614181565b5060608301518482036060860152613fce8282613b6a565b91505060808301518482036080860152613fe88282613b6a565b9150508091505092915050565b60006101008301600083015161400e6000860182614181565b5060208301516140216020860182614181565b5060408301516140346040860182614181565b5060608301516140476060860182614181565b50608083015161405a6080860182614181565b5060a083015161406d60a0860182614181565b5060c083015184820360c08601526140858282613b6a565b91505060e083015184820360e086015261409f8282613b6a565b9150508091505092915050565b6000610100830160008301516140c56000860182614181565b5060208301516140d86020860182614181565b5060408301516140eb6040860182614181565b5060608301516140fe6060860182614181565b5060808301516141116080860182614181565b5060a083015161412460a0860182614181565b5060c083015184820360c086015261413c8282613b6a565b91505060e083015184820360e08601526141568282613b6a565b9150508091505092915050565b61416c81614a54565b82525050565b61417b81614a6e565b82525050565b61418a81614a5e565b82525050565b61419981614a5e565b82525050565b60006141aa82613e83565b91506141b6828b613bdc565b91506141c182613c0d565b91506141cd828a613bdc565b91506141d882613dd4565b91506141e48289613bdc565b91506141ef82613f0f565b91506141fb8288613bdc565b915061420682613c99565b91506142128287613bdc565b915061421d82613f32565b91506142298286613bdc565b915061423482613db1565b91506142408285613bdc565b915061424b82613f55565b91506142578284613bdc565b915061426282613df7565b91508190509998505050505050505050565b600061427f82613ec9565b915061428b8284613bdc565b915081905092915050565b60006020820190506142ab6000830184613a9e565b92915050565b60006080820190506142c66000830187613a9e565b6142d36020830186613a9e565b6142e06040830185614163565b81810360608301526142f28184613b31565b905095945050505050565b60006060820190506143126000830186613a9e565b61431f6020830185614163565b61432c6040830184614172565b949350505050565b6000602082019050818103600083015261434e8184613aad565b905092915050565b600060208201905061436b6000830184613b22565b92915050565b6000602082019050818103600083015261438b8184613ba3565b905092915050565b600060808201905081810360008301526143ad8187613ba3565b905081810360208301526143c18186613ba3565b90506143d06040830185614163565b6143dd6060830184614163565b95945050505050565b600060408201905081810360008301526144008185613ba3565b905061440f6020830184614163565b9392505050565b600060808201905081810360008301526144308187613ba3565b905061443f6020830186614163565b61444c6040830185614163565b818103606083015261445e8184613ba3565b905095945050505050565b6000602082019050818103600083015261448281613c30565b9050919050565b600060208201905081810360008301526144a281613c53565b9050919050565b600060208201905081810360008301526144c281613c76565b9050919050565b600060208201905081810360008301526144e281613cbc565b9050919050565b6000602082019050818103600083015261450281613cdf565b9050919050565b6000602082019050818103600083015261452281613d02565b9050919050565b6000602082019050818103600083015261454281613d25565b9050919050565b6000602082019050818103600083015261456281613d48565b9050919050565b6000602082019050818103600083015261458281613d6b565b9050919050565b600060208201905081810360008301526145a281613d8e565b9050919050565b600060208201905081810360008301526145c281613e1a565b9050919050565b600060208201905081810360008301526145e281613e3d565b9050919050565b6000602082019050818103600083015261460281613e60565b9050919050565b6000602082019050818103600083015261462281613ea6565b9050919050565b6000602082019050818103600083015261464281613eec565b9050919050565b600060208201905081810360008301526146638184613f78565b905092915050565b6000602082019050818103600083015261468581846140ac565b905092915050565b60006020820190506146a26000830184614163565b92915050565b60006040820190506146bd6000830185614172565b6146ca6020830184614172565b9392505050565b600060a0820190506146e66000830188614190565b6146f36020830187614190565b6147006040830186614190565b81810360608301526147128185613ba3565b905081810360808301526147268184613ba3565b90509695505050505050565b600061010082019050614748600083018b614190565b614755602083018a614190565b6147626040830189614190565b61476f6060830188614190565b61477c6080830187614190565b61478960a0830186614190565b81810360c083015261479b8185613ba3565b905081810360e08301526147af8184613ba3565b90509998505050505050505050565b60006147c86147d9565b90506147d48282614af4565b919050565b6000604051905090565b600067ffffffffffffffff8211156147fe576147fd614c2c565b5b61480782614c5b565b9050602081019050919050565b6000819050602082019050919050565b600081519050919050565b600081519050919050565b600081519050919050565b6000602082019050919050565b600082825260208201905092915050565b600082825260208201905092915050565b600082825260208201905092915050565b600082825260208201905092915050565b600081905092915050565b60006148ac82614a54565b91506148b783614a54565b9250827fffffffffffffffffffffffffffffffffffffffffffffffffffffffffffffffff038211156148ec576148eb614b9f565b5b828201905092915050565b600061490282614a54565b915061490d83614a54565b92508261491d5761491c614bce565b5b828204905092915050565b600061493382614a54565b915061493e83614a54565b9250817fffffffffffffffffffffffffffffffffffffffffffffffffffffffffffffffff048311821515161561497757614976614b9f565b5b828202905092915050565b600061498d82614a54565b915061499883614a54565b9250828210156149ab576149aa614b9f565b5b828203905092915050565b60006149c182614a5e565b91506149cc83614a5e565b9250828210156149df576149de614b9f565b5b828203905092915050565b60006149f582614a34565b9050919050565b60008115159050919050565b60007fffffffff0000000000000000000000000000000000000000000000000000000082169050919050565b600073ffffffffffffffffffffffffffffffffffffffff82169050919050565b6000819050919050565b600063ffffffff82169050919050565b6000614a7982614a5e565b9050919050565b82818337600083830152505050565b60005b83811015614aad578082015181840152602081019050614a92565b83811115614abc576000848401525b50505050565b60006002820490506001821680614ada57607f821691505b60208210811415614aee57614aed614bfd565b5b50919050565b614afd82614c5b565b810181811067ffffffffffffffff82111715614b1c57614b1b614c2c565b5b80604052505050565b6000614b3082614a54565b91507fffffffffffffffffffffffffffffffffffffffffffffffffffffffffffffffff821415614b6357614b62614b9f565b5b600182019050919050565b6000614b7982614a54565b9150614b8483614a54565b925082614b9457614b93614bce565b5b828206905092915050565b7f4e487b7100000000000000000000000000000000000000000000000000000000600052601160045260246000fd5b7f4e487b7100000000000000000000000000000000000000000000000000000000600052601260045260246000fd5b7f4e487b7100000000000000000000000000000000000000000000000000000000600052602260045260246000fd5b7f4e487b7100000000000000000000000000000000000000000000000000000000600052604160045260246000fd5b6000601f19601f8301169050919050565b7f202d2d204e465420233a20000000000000000000000000000000000000000000600082015250565b7f4552433732313a207472616e7366657220746f206e6f6e20455243373231526560008201527f63656976657220696d706c656d656e7465720000000000000000000000000000602082015250565b7f42696720626f73732068702069732062656c6f77207a65726f21000000000000600082015250565b7f4552433732313a20746f6b656e20616c7265616479206d696e74656400000000600082015250565b7f2c20226d61785f76616c7565223a000000000000000000000000000000000000600082015250565b7f4552433732313a207472616e7366657220746f20746865207a65726f2061646460008201527f7265737300000000000000000000000000000000000000000000000000000000602082015250565b7f4552433732313a20617070726f766520746f2063616c6c657200000000000000600082015250565b7f4552433732313a206f70657261746f7220717565727920666f72206e6f6e657860008201527f697374656e7420746f6b656e0000000000000000000000000000000000000000602082015250565b7f4552433732313a20617070726f76652063616c6c6572206973206e6f74206f7760008201527f6e6572206e6f7220617070726f76656420666f7220616c6c0000000000000000602082015250565b7f436861726163746572204850206973206c657373207468616e206f722065717560008201527f616c20746f207a65726f21000000000000000000000000000000000000000000602082015250565b7f4552433732313a2062616c616e636520717565727920666f7220746865207a6560008201527f726f206164647265737300000000000000000000000000000000000000000000602082015250565b7f4552433732313a206f776e657220717565727920666f72206e6f6e657869737460008201527f656e7420746f6b656e0000000000000000000000000000000000000000000000602082015250565b7f7d2c207b202274726169745f74797065223a202253757065722041747461636b60008201527f2044616d616765222c202276616c7565223a2000000000000000000000000000602082015250565b7f222c20226465736372697074696f6e223a20225468697320697320616e204e4660008201527f542074686174206c6574732070656f706c6520706c617920696e20746865206760208201527f616d65204d657461766572736520536c6179657221222c2022696d616765223a60408201527f2022000000000000000000000000000000000000000000000000000000000000606082015250565b7f7d205d7d00000000000000000000000000000000000000000000000000000000600082015250565b7f4552433732313a206d696e7420746f20746865207a65726f2061646472657373600082015250565b7f4552433732313a20617070726f76656420717565727920666f72206e6f6e657860008201527f697374656e7420746f6b656e0000000000000000000000000000000000000000602082015250565b7f4552433732313a207472616e73666572206f6620746f6b656e2074686174206960008201527f73206e6f74206f776e0000000000000000000000000000000000000000000000602082015250565b7f7b226e616d65223a202200000000000000000000000000000000000000000000600082015250565b7f4552433732313a20617070726f76616c20746f2063757272656e74206f776e6560008201527f7200000000000000000000000000000000000000000000000000000000000000602082015250565b7f646174613a6170706c69636174696f6e2f6a736f6e3b6261736536342c000000600082015250565b7f4552433732313a207472616e736665722063616c6c6572206973206e6f74206f60008201527f776e6572206e6f7220617070726f766564000000000000000000000000000000602082015250565b7f222c202261747472696275746573223a205b207b202274726169745f7479706560008201527f223a20224865616c746820506f696e7473222c202276616c7565223a20000000602082015250565b7f7d2c207b202274726169745f74797065223a202241747461636b2044616d616760008201527f65222c202276616c7565223a2000000000000000000000000000000000000000602082015250565b7f7d2c207b202274726169745f74797065223a2022446566656e7365222c20227660008201527f616c7565223a2000000000000000000000000000000000000000000000000000602082015250565b615322816149ea565b811461532d57600080fd5b50565b615339816149fc565b811461534457600080fd5b50565b61535081614a08565b811461535b57600080fd5b50565b61536781614a54565b811461537257600080fd5b50565b61537e81614a5e565b811461538957600080fd5b5056fe506c617965722061747461636b656420626f73732e204e657720626f73732068703a2025734142434445464748494a4b4c4d4e4f505152535455565758595a6162636465666768696a6b6c6d6e6f707172737475767778797a303132333435363738392b2f426f73732061747461636b656420706c617965722e204e657720706c617965722068703a2025730a426f73732061637475616c6c79206b696c6c656420796f752e20596f752063616e277420726576697665206e6f77214d696e746564204e465420772f20746f6b656e496420257320616e6420636861726163746572496e646578202573796f752068617665207375636365737366756c6c792064656665617465642074686520626f73730a506c6179657220772f206368617261637465722025732061626f757420746f2061747461636b2e2048617320257320485020616e64202573204144a2646970667358221220ff9d5230226c2d72c0fb49bb91c149e30e8edf26b44c2771b4d890bf1c24257464736f6c63430008040033",
  "linkReferences": {},
  "deployedLinkReferences": {}
}